{
  "contractName": "NFTMarket",
  "abi": [
    {
      "inputs": [],
      "stateMutability": "nonpayable",
      "type": "constructor"
    },
    {
      "anonymous": false,
      "inputs": [
        {
          "indexed": true,
          "internalType": "address",
          "name": "owner",
          "type": "address"
        },
        {
          "indexed": true,
          "internalType": "address",
          "name": "approved",
          "type": "address"
        },
        {
          "indexed": true,
          "internalType": "uint256",
          "name": "tokenId",
          "type": "uint256"
        }
      ],
      "name": "Approval",
      "type": "event"
    },
    {
      "anonymous": false,
      "inputs": [
        {
          "indexed": true,
          "internalType": "address",
          "name": "owner",
          "type": "address"
        },
        {
          "indexed": true,
          "internalType": "address",
          "name": "operator",
          "type": "address"
        },
        {
          "indexed": false,
          "internalType": "bool",
          "name": "approved",
          "type": "bool"
        }
      ],
      "name": "ApprovalForAll",
      "type": "event"
    },
    {
      "anonymous": false,
      "inputs": [
        {
          "indexed": true,
          "internalType": "address",
          "name": "_to",
          "type": "address"
        },
        {
          "indexed": true,
          "internalType": "uint256",
          "name": "_tokenId",
          "type": "uint256"
        },
        {
          "indexed": true,
          "internalType": "string",
          "name": "_tokenURI",
          "type": "string"
        }
      ],
      "name": "NFTCreated",
      "type": "event"
    },
    {
      "anonymous": false,
      "inputs": [
        {
          "indexed": true,
          "internalType": "address",
          "name": "from",
          "type": "address"
        },
        {
          "indexed": true,
          "internalType": "address",
          "name": "to",
          "type": "address"
        },
        {
          "indexed": true,
          "internalType": "uint256",
          "name": "tokenId",
          "type": "uint256"
        }
      ],
      "name": "Transfer",
      "type": "event"
    },
    {
      "inputs": [
        {
          "internalType": "address",
          "name": "to",
          "type": "address"
        },
        {
          "internalType": "uint256",
          "name": "tokenId",
          "type": "uint256"
        }
      ],
      "name": "approve",
      "outputs": [],
      "stateMutability": "nonpayable",
      "type": "function"
    },
    {
      "inputs": [
        {
          "internalType": "address",
          "name": "owner",
          "type": "address"
        }
      ],
      "name": "balanceOf",
      "outputs": [
        {
          "internalType": "uint256",
          "name": "",
          "type": "uint256"
        }
      ],
      "stateMutability": "view",
      "type": "function",
      "constant": true
    },
    {
      "inputs": [
        {
          "internalType": "uint256",
          "name": "tokenId",
          "type": "uint256"
        }
      ],
      "name": "getApproved",
      "outputs": [
        {
          "internalType": "address",
          "name": "",
          "type": "address"
        }
      ],
      "stateMutability": "view",
      "type": "function",
      "constant": true
    },
    {
      "inputs": [
        {
          "internalType": "address",
          "name": "owner",
          "type": "address"
        },
        {
          "internalType": "address",
          "name": "operator",
          "type": "address"
        }
      ],
      "name": "isApprovedForAll",
      "outputs": [
        {
          "internalType": "bool",
          "name": "",
          "type": "bool"
        }
      ],
      "stateMutability": "view",
      "type": "function",
      "constant": true
    },
    {
      "inputs": [],
      "name": "name",
      "outputs": [
        {
          "internalType": "string",
          "name": "",
          "type": "string"
        }
      ],
      "stateMutability": "view",
      "type": "function",
      "constant": true
    },
    {
      "inputs": [
        {
          "internalType": "uint256",
          "name": "tokenId",
          "type": "uint256"
        }
      ],
      "name": "ownerOf",
      "outputs": [
        {
          "internalType": "address",
          "name": "",
          "type": "address"
        }
      ],
      "stateMutability": "view",
      "type": "function",
      "constant": true
    },
    {
      "inputs": [
        {
          "internalType": "address",
          "name": "from",
          "type": "address"
        },
        {
          "internalType": "address",
          "name": "to",
          "type": "address"
        },
        {
          "internalType": "uint256",
          "name": "tokenId",
          "type": "uint256"
        }
      ],
      "name": "safeTransferFrom",
      "outputs": [],
      "stateMutability": "nonpayable",
      "type": "function"
    },
    {
      "inputs": [
        {
          "internalType": "address",
          "name": "from",
          "type": "address"
        },
        {
          "internalType": "address",
          "name": "to",
          "type": "address"
        },
        {
          "internalType": "uint256",
          "name": "tokenId",
          "type": "uint256"
        },
        {
          "internalType": "bytes",
          "name": "_data",
          "type": "bytes"
        }
      ],
      "name": "safeTransferFrom",
      "outputs": [],
      "stateMutability": "nonpayable",
      "type": "function"
    },
    {
      "inputs": [
        {
          "internalType": "address",
          "name": "operator",
          "type": "address"
        },
        {
          "internalType": "bool",
          "name": "approved",
          "type": "bool"
        }
      ],
      "name": "setApprovalForAll",
      "outputs": [],
      "stateMutability": "nonpayable",
      "type": "function"
    },
    {
      "inputs": [
        {
          "internalType": "bytes4",
          "name": "interfaceId",
          "type": "bytes4"
        }
      ],
      "name": "supportsInterface",
      "outputs": [
        {
          "internalType": "bool",
          "name": "",
          "type": "bool"
        }
      ],
      "stateMutability": "view",
      "type": "function",
      "constant": true
    },
    {
      "inputs": [],
      "name": "symbol",
      "outputs": [
        {
          "internalType": "string",
          "name": "",
          "type": "string"
        }
      ],
      "stateMutability": "view",
      "type": "function",
      "constant": true
    },
    {
      "inputs": [
        {
          "internalType": "uint256",
          "name": "tokenId",
          "type": "uint256"
        }
      ],
      "name": "tokenURI",
      "outputs": [
        {
          "internalType": "string",
          "name": "",
          "type": "string"
        }
      ],
      "stateMutability": "view",
      "type": "function",
      "constant": true
    },
    {
      "inputs": [
        {
          "internalType": "address",
          "name": "from",
          "type": "address"
        },
        {
          "internalType": "address",
          "name": "to",
          "type": "address"
        },
        {
          "internalType": "uint256",
          "name": "tokenId",
          "type": "uint256"
        }
      ],
      "name": "transferFrom",
      "outputs": [],
      "stateMutability": "nonpayable",
      "type": "function"
    },
    {
      "inputs": [],
      "name": "getLastId",
      "outputs": [
        {
          "internalType": "uint256",
          "name": "",
          "type": "uint256"
        }
      ],
      "stateMutability": "view",
      "type": "function",
      "constant": true
    },
    {
      "inputs": [
        {
          "internalType": "string",
          "name": "_tokenURI",
          "type": "string"
        }
      ],
      "name": "createNFT",
      "outputs": [
        {
          "internalType": "uint256",
          "name": "",
          "type": "uint256"
        }
      ],
      "stateMutability": "nonpayable",
      "type": "function"
    }
  ],
  "bytecode": "0x60806040523480156200001157600080fd5b506040518060400160405280600a81526020017f417274206d696e746572000000000000000000000000000000000000000000008152506040518060400160405280600381526020017f4152540000000000000000000000000000000000000000000000000000000000815250816000908051906020019062000096929190620000b8565b508060019080519060200190620000af929190620000b8565b505050620001cd565b828054620000c69062000168565b90600052602060002090601f016020900481019282620000ea576000855562000136565b82601f106200010557805160ff191683800117855562000136565b8280016001018555821562000136579182015b828111156200013557825182559160200191906001019062000118565b5b50905062000145919062000149565b5090565b5b80821115620001645760008160009055506001016200014a565b5090565b600060028204905060018216806200018157607f821691505b602082108114156200019857620001976200019e565b5b50919050565b7f4e487b7100000000000000000000000000000000000000000000000000000000600052602260045260246000fd5b612b9e80620001dd6000396000f3fe608060405234801561001057600080fd5b50600436106100f55760003560e01c806370a0823111610097578063b88d4fde11610066578063b88d4fde14610284578063c87b56dd146102a0578063da2ed03e146102d0578063e985e9c514610300576100f5565b806370a08231146101fc57806395d89b411461022c578063a22cb4651461024a578063a8e5862d14610266576100f5565b8063095ea7b3116100d3578063095ea7b31461017857806323b872dd1461019457806342842e0e146101b05780636352211e146101cc576100f5565b806301ffc9a7146100fa57806306fdde031461012a578063081812fc14610148575b600080fd5b610114600480360381019061010f9190611cda565b610330565b60405161012191906124f6565b60405180910390f35b610132610412565b60405161013f9190612511565b60405180910390f35b610162600480360381019061015d9190611d6d565b6104a4565b60405161016f919061248f565b60405180910390f35b610192600480360381019061018d9190611c9e565b610529565b005b6101ae60048036038101906101a99190611b98565b610641565b005b6101ca60048036038101906101c59190611b98565b6106a1565b005b6101e660048036038101906101e19190611d6d565b6106c1565b6040516101f3919061248f565b60405180910390f35b61021660048036038101906102119190611b33565b610773565b6040516102239190612733565b60405180910390f35b61023461082b565b6040516102419190612511565b60405180910390f35b610264600480360381019061025f9190611c62565b6108bd565b005b61026e610a3e565b60405161027b9190612733565b60405180910390f35b61029e60048036038101906102999190611be7565b610a4f565b005b6102ba60048036038101906102b59190611d6d565b610ab1565b6040516102c79190612511565b60405180910390f35b6102ea60048036038101906102e59190611d2c565b610c03565b6040516102f79190612733565b60405180910390f35b61031a60048036038101906103159190611b5c565b610c9d565b60405161032791906124f6565b60405180910390f35b60007f80ac58cd000000000000000000000000000000000000000000000000000000007bffffffffffffffffffffffffffffffffffffffffffffffffffffffff1916827bffffffffffffffffffffffffffffffffffffffffffffffffffffffff191614806103fb57507f5b5e139f000000000000000000000000000000000000000000000000000000007bffffffffffffffffffffffffffffffffffffffffffffffffffffffff1916827bffffffffffffffffffffffffffffffffffffffffffffffffffffffff1916145b8061040b575061040a82610d31565b5b9050919050565b60606000805461042190612993565b80601f016020809104026020016040519081016040528092919081815260200182805461044d90612993565b801561049a5780601f1061046f5761010080835404028352916020019161049a565b820191906000526020600020905b81548152906001019060200180831161047d57829003601f168201915b5050505050905090565b60006104af82610d9b565b6104ee576040517f08c379a00000000000000000000000000000000000000000000000000000000081526004016104e590612693565b60405180910390fd5b6004600083815260200190815260200160002060009054906101000a900473ffffffffffffffffffffffffffffffffffffffff169050919050565b6000610534826106c1565b90508073ffffffffffffffffffffffffffffffffffffffff168373ffffffffffffffffffffffffffffffffffffffff1614156105a5576040517f08c379a000000000000000000000000000000000000000000000000000000000815260040161059c906126f3565b60405180910390fd5b8073ffffffffffffffffffffffffffffffffffffffff166105c4610e07565b73ffffffffffffffffffffffffffffffffffffffff1614806105f357506105f2816105ed610e07565b610c9d565b5b610632576040517f08c379a0000000000000000000000000000000000000000000000000000000008152600401610629906125d3565b60405180910390fd5b61063c8383610e0f565b505050565b61065261064c610e07565b82610ec8565b610691576040517f08c379a000000000000000000000000000000000000000000000000000000000815260040161068890612713565b60405180910390fd5b61069c838383610fa6565b505050565b6106bc83838360405180602001604052806000815250610a4f565b505050565b6000806002600084815260200190815260200160002060009054906101000a900473ffffffffffffffffffffffffffffffffffffffff169050600073ffffffffffffffffffffffffffffffffffffffff168173ffffffffffffffffffffffffffffffffffffffff16141561076a576040517f08c379a000000000000000000000000000000000000000000000000000000000815260040161076190612613565b60405180910390fd5b80915050919050565b60008073ffffffffffffffffffffffffffffffffffffffff168273ffffffffffffffffffffffffffffffffffffffff1614156107e4576040517f08c379a00000000000000000000000000000000000000000000000000000000081526004016107db906125f3565b60405180910390fd5b600360008373ffffffffffffffffffffffffffffffffffffffff1673ffffffffffffffffffffffffffffffffffffffff168152602001908152602001600020549050919050565b60606001805461083a90612993565b80601f016020809104026020016040519081016040528092919081815260200182805461086690612993565b80156108b35780601f10610888576101008083540402835291602001916108b3565b820191906000526020600020905b81548152906001019060200180831161089657829003601f168201915b5050505050905090565b6108c5610e07565b73ffffffffffffffffffffffffffffffffffffffff168273ffffffffffffffffffffffffffffffffffffffff161415610933576040517f08c379a000000000000000000000000000000000000000000000000000000000815260040161092a90612593565b60405180910390fd5b8060056000610940610e07565b73ffffffffffffffffffffffffffffffffffffffff1673ffffffffffffffffffffffffffffffffffffffff16815260200190815260200160002060008473ffffffffffffffffffffffffffffffffffffffff1673ffffffffffffffffffffffffffffffffffffffff16815260200190815260200160002060006101000a81548160ff0219169083151502179055508173ffffffffffffffffffffffffffffffffffffffff166109ed610e07565b73ffffffffffffffffffffffffffffffffffffffff167f17307eab39ab6107e8899845ad3d59bd9653f200f220920489ca2b5937696c3183604051610a3291906124f6565b60405180910390a35050565b6000610a4a6007611202565b905090565b610a60610a5a610e07565b83610ec8565b610a9f576040517f08c379a0000000000000000000000000000000000000000000000000000000008152600401610a9690612713565b60405180910390fd5b610aab84848484611210565b50505050565b6060610abc82610d9b565b610afb576040517f08c379a0000000000000000000000000000000000000000000000000000000008152600401610af290612673565b60405180910390fd5b6000600660008481526020019081526020016000208054610b1b90612993565b80601f0160208091040260200160405190810160405280929190818152602001828054610b4790612993565b8015610b945780601f10610b6957610100808354040283529160200191610b94565b820191906000526020600020905b815481529060010190602001808311610b7757829003601f168201915b505050505090506000610ba561126c565b9050600081511415610bbb578192505050610bfe565b600082511115610bf0578082604051602001610bd892919061246b565b60405160208183030381529060405292505050610bfe565b610bf984611283565b925050505b919050565b6000610c0f600761132a565b6000610c1b6007611202565b9050610c273382611340565b610c31818461135e565b82604051610c3f9190612454565b6040518091039020610c516007611202565b3373ffffffffffffffffffffffffffffffffffffffff167f403f45e064e1472b925888509d0e5164b4642f3064c519d162e3b9261c204adc60405160405180910390a480915050919050565b6000600560008473ffffffffffffffffffffffffffffffffffffffff1673ffffffffffffffffffffffffffffffffffffffff16815260200190815260200160002060008373ffffffffffffffffffffffffffffffffffffffff1673ffffffffffffffffffffffffffffffffffffffff16815260200190815260200160002060009054906101000a900460ff16905092915050565b60007f01ffc9a7000000000000000000000000000000000000000000000000000000007bffffffffffffffffffffffffffffffffffffffffffffffffffffffff1916827bffffffffffffffffffffffffffffffffffffffffffffffffffffffff1916149050919050565b60008073ffffffffffffffffffffffffffffffffffffffff166002600084815260200190815260200160002060009054906101000a900473ffffffffffffffffffffffffffffffffffffffff1673ffffffffffffffffffffffffffffffffffffffff1614159050919050565b600033905090565b816004600083815260200190815260200160002060006101000a81548173ffffffffffffffffffffffffffffffffffffffff021916908373ffffffffffffffffffffffffffffffffffffffff160217905550808273ffffffffffffffffffffffffffffffffffffffff16610e82836106c1565b73ffffffffffffffffffffffffffffffffffffffff167f8c5be1e5ebec7d5bd14f71427d1e84f3dd0314c0f7b2291e5b200ac8c7c3b92560405160405180910390a45050565b6000610ed382610d9b565b610f12576040517f08c379a0000000000000000000000000000000000000000000000000000000008152600401610f09906125b3565b60405180910390fd5b6000610f1d836106c1565b90508073ffffffffffffffffffffffffffffffffffffffff168473ffffffffffffffffffffffffffffffffffffffff161480610f8c57508373ffffffffffffffffffffffffffffffffffffffff16610f74846104a4565b73ffffffffffffffffffffffffffffffffffffffff16145b80610f9d5750610f9c8185610c9d565b5b91505092915050565b8273ffffffffffffffffffffffffffffffffffffffff16610fc6826106c1565b73ffffffffffffffffffffffffffffffffffffffff161461101c576040517f08c379a0000000000000000000000000000000000000000000000000000000008152600401611013906126b3565b60405180910390fd5b600073ffffffffffffffffffffffffffffffffffffffff168273ffffffffffffffffffffffffffffffffffffffff16141561108c576040517f08c379a000000000000000000000000000000000000000000000000000000000815260040161108390612573565b60405180910390fd5b6110978383836113d2565b6110a2600082610e0f565b6001600360008573ffffffffffffffffffffffffffffffffffffffff1673ffffffffffffffffffffffffffffffffffffffff16815260200190815260200160002060008282546110f291906128a9565b925050819055506001600360008473ffffffffffffffffffffffffffffffffffffffff1673ffffffffffffffffffffffffffffffffffffffff16815260200190815260200160002060008282546111499190612822565b92505081905550816002600083815260200190815260200160002060006101000a81548173ffffffffffffffffffffffffffffffffffffffff021916908373ffffffffffffffffffffffffffffffffffffffff160217905550808273ffffffffffffffffffffffffffffffffffffffff168473ffffffffffffffffffffffffffffffffffffffff167fddf252ad1be2c89b69c2b068fc378daa952ba7f163c4a11628f55a4df523b3ef60405160405180910390a4505050565b600081600001549050919050565b61121b848484610fa6565b611227848484846113d7565b611266576040517f08c379a000000000000000000000000000000000000000000000000000000000815260040161125d90612533565b60405180910390fd5b50505050565b606060405180602001604052806000815250905090565b606061128e82610d9b565b6112cd576040517f08c379a00000000000000000000000000000000000000000000000000000000081526004016112c4906126d3565b60405180910390fd5b60006112d761126c565b905060008151116112f75760405180602001604052806000815250611322565b806113018461156e565b60405160200161131292919061246b565b6040516020818303038152906040525b915050919050565b6001816000016000828254019250508190555050565b61135a82826040518060200160405280600081525061171b565b5050565b61136782610d9b565b6113a6576040517f08c379a000000000000000000000000000000000000000000000000000000000815260040161139d90612633565b60405180910390fd5b806006600084815260200190815260200160002090805190602001906113cd929190611957565b505050565b505050565b60006113f88473ffffffffffffffffffffffffffffffffffffffff16611776565b15611561578373ffffffffffffffffffffffffffffffffffffffff1663150b7a02611421610e07565b8786866040518563ffffffff1660e01b815260040161144394939291906124aa565b602060405180830381600087803b15801561145d57600080fd5b505af192505050801561148e57506040513d601f19601f8201168201806040525081019061148b9190611d03565b60015b611511573d80600081146114be576040519150601f19603f3d011682016040523d82523d6000602084013e6114c3565b606091505b50600081511415611509576040517f08c379a000000000000000000000000000000000000000000000000000000000815260040161150090612533565b60405180910390fd5b805181602001fd5b63150b7a0260e01b7bffffffffffffffffffffffffffffffffffffffffffffffffffffffff1916817bffffffffffffffffffffffffffffffffffffffffffffffffffffffff191614915050611566565b600190505b949350505050565b606060008214156115b6576040518060400160405280600181526020017f30000000000000000000000000000000000000000000000000000000000000008152509050611716565b600082905060005b600082146115e85780806115d1906129c5565b915050600a826115e19190612878565b91506115be565b60008167ffffffffffffffff81111561162a577f4e487b7100000000000000000000000000000000000000000000000000000000600052604160045260246000fd5b6040519080825280601f01601f19166020018201604052801561165c5781602001600182028036833780820191505090505b5090505b6000851461170f5760018261167591906128a9565b9150600a856116849190612a0e565b60306116909190612822565b60f81b8183815181106116cc577f4e487b7100000000000000000000000000000000000000000000000000000000600052603260045260246000fd5b60200101907effffffffffffffffffffffffffffffffffffffffffffffffffffffffffffff1916908160001a905350600a856117089190612878565b9450611660565b8093505050505b919050565b6117258383611789565b61173260008484846113d7565b611771576040517f08c379a000000000000000000000000000000000000000000000000000000000815260040161176890612533565b60405180910390fd5b505050565b600080823b905060008111915050919050565b600073ffffffffffffffffffffffffffffffffffffffff168273ffffffffffffffffffffffffffffffffffffffff1614156117f9576040517f08c379a00000000000000000000000000000000000000000000000000000000081526004016117f090612653565b60405180910390fd5b61180281610d9b565b15611842576040517f08c379a000000000000000000000000000000000000000000000000000000000815260040161183990612553565b60405180910390fd5b61184e600083836113d2565b6001600360008473ffffffffffffffffffffffffffffffffffffffff1673ffffffffffffffffffffffffffffffffffffffff168152602001908152602001600020600082825461189e9190612822565b92505081905550816002600083815260200190815260200160002060006101000a81548173ffffffffffffffffffffffffffffffffffffffff021916908373ffffffffffffffffffffffffffffffffffffffff160217905550808273ffffffffffffffffffffffffffffffffffffffff16600073ffffffffffffffffffffffffffffffffffffffff167fddf252ad1be2c89b69c2b068fc378daa952ba7f163c4a11628f55a4df523b3ef60405160405180910390a45050565b82805461196390612993565b90600052602060002090601f01602090048101928261198557600085556119cc565b82601f1061199e57805160ff19168380011785556119cc565b828001600101855582156119cc579182015b828111156119cb5782518255916020019190600101906119b0565b5b5090506119d991906119dd565b5090565b5b808211156119f65760008160009055506001016119de565b5090565b6000611a0d611a088461277f565b61274e565b905082815260208101848484011115611a2557600080fd5b611a30848285612951565b509392505050565b6000611a4b611a46846127af565b61274e565b905082815260208101848484011115611a6357600080fd5b611a6e848285612951565b509392505050565b600081359050611a8581612b0c565b92915050565b600081359050611a9a81612b23565b92915050565b600081359050611aaf81612b3a565b92915050565b600081519050611ac481612b3a565b92915050565b600082601f830112611adb57600080fd5b8135611aeb8482602086016119fa565b91505092915050565b600082601f830112611b0557600080fd5b8135611b15848260208601611a38565b91505092915050565b600081359050611b2d81612b51565b92915050565b600060208284031215611b4557600080fd5b6000611b5384828501611a76565b91505092915050565b60008060408385031215611b6f57600080fd5b6000611b7d85828601611a76565b9250506020611b8e85828601611a76565b9150509250929050565b600080600060608486031215611bad57600080fd5b6000611bbb86828701611a76565b9350506020611bcc86828701611a76565b9250506040611bdd86828701611b1e565b9150509250925092565b60008060008060808587031215611bfd57600080fd5b6000611c0b87828801611a76565b9450506020611c1c87828801611a76565b9350506040611c2d87828801611b1e565b925050606085013567ffffffffffffffff811115611c4a57600080fd5b611c5687828801611aca565b91505092959194509250565b60008060408385031215611c7557600080fd5b6000611c8385828601611a76565b9250506020611c9485828601611a8b565b9150509250929050565b60008060408385031215611cb157600080fd5b6000611cbf85828601611a76565b9250506020611cd085828601611b1e565b9150509250929050565b600060208284031215611cec57600080fd5b6000611cfa84828501611aa0565b91505092915050565b600060208284031215611d1557600080fd5b6000611d2384828501611ab5565b91505092915050565b600060208284031215611d3e57600080fd5b600082013567ffffffffffffffff811115611d5857600080fd5b611d6484828501611af4565b91505092915050565b600060208284031215611d7f57600080fd5b6000611d8d84828501611b1e565b91505092915050565b611d9f816128dd565b82525050565b611dae816128ef565b82525050565b6000611dbf826127df565b611dc981856127f5565b9350611dd9818560208601612960565b611de281612afb565b840191505092915050565b6000611df8826127ea565b611e028185612806565b9350611e12818560208601612960565b611e1b81612afb565b840191505092915050565b6000611e31826127ea565b611e3b8185612817565b9350611e4b818560208601612960565b80840191505092915050565b6000611e64603283612806565b91507f4552433732313a207472616e7366657220746f206e6f6e20455243373231526560008301527f63656976657220696d706c656d656e74657200000000000000000000000000006020830152604082019050919050565b6000611eca601c83612806565b91507f4552433732313a20746f6b656e20616c7265616479206d696e746564000000006000830152602082019050919050565b6000611f0a602483612806565b91507f4552433732313a207472616e7366657220746f20746865207a65726f2061646460008301527f72657373000000000000000000000000000000000000000000000000000000006020830152604082019050919050565b6000611f70601983612806565b91507f4552433732313a20617070726f766520746f2063616c6c6572000000000000006000830152602082019050919050565b6000611fb0602c83612806565b91507f4552433732313a206f70657261746f7220717565727920666f72206e6f6e657860008301527f697374656e7420746f6b656e00000000000000000000000000000000000000006020830152604082019050919050565b6000612016603883612806565b91507f4552433732313a20617070726f76652063616c6c6572206973206e6f74206f7760008301527f6e6572206e6f7220617070726f76656420666f7220616c6c00000000000000006020830152604082019050919050565b600061207c602a83612806565b91507f4552433732313a2062616c616e636520717565727920666f7220746865207a6560008301527f726f2061646472657373000000000000000000000000000000000000000000006020830152604082019050919050565b60006120e2602983612806565b91507f4552433732313a206f776e657220717565727920666f72206e6f6e657869737460008301527f656e7420746f6b656e00000000000000000000000000000000000000000000006020830152604082019050919050565b6000612148602e83612806565b91507f45524337323155524953746f726167653a2055524920736574206f66206e6f6e60008301527f6578697374656e7420746f6b656e0000000000000000000000000000000000006020830152604082019050919050565b60006121ae602083612806565b91507f4552433732313a206d696e7420746f20746865207a65726f20616464726573736000830152602082019050919050565b60006121ee603183612806565b91507f45524337323155524953746f726167653a2055524920717565727920666f722060008301527f6e6f6e6578697374656e7420746f6b656e0000000000000000000000000000006020830152604082019050919050565b6000612254602c83612806565b91507f4552433732313a20617070726f76656420717565727920666f72206e6f6e657860008301527f697374656e7420746f6b656e00000000000000000000000000000000000000006020830152604082019050919050565b60006122ba602983612806565b91507f4552433732313a207472616e73666572206f6620746f6b656e2074686174206960008301527f73206e6f74206f776e00000000000000000000000000000000000000000000006020830152604082019050919050565b6000612320602f83612806565b91507f4552433732314d657461646174613a2055524920717565727920666f72206e6f60008301527f6e6578697374656e7420746f6b656e00000000000000000000000000000000006020830152604082019050919050565b6000612386602183612806565b91507f4552433732313a20617070726f76616c20746f2063757272656e74206f776e6560008301527f72000000000000000000000000000000000000000000000000000000000000006020830152604082019050919050565b60006123ec603183612806565b91507f4552433732313a207472616e736665722063616c6c6572206973206e6f74206f60008301527f776e6572206e6f7220617070726f7665640000000000000000000000000000006020830152604082019050919050565b61244e81612947565b82525050565b60006124608284611e26565b915081905092915050565b60006124778285611e26565b91506124838284611e26565b91508190509392505050565b60006020820190506124a46000830184611d96565b92915050565b60006080820190506124bf6000830187611d96565b6124cc6020830186611d96565b6124d96040830185612445565b81810360608301526124eb8184611db4565b905095945050505050565b600060208201905061250b6000830184611da5565b92915050565b6000602082019050818103600083015261252b8184611ded565b905092915050565b6000602082019050818103600083015261254c81611e57565b9050919050565b6000602082019050818103600083015261256c81611ebd565b9050919050565b6000602082019050818103600083015261258c81611efd565b9050919050565b600060208201905081810360008301526125ac81611f63565b9050919050565b600060208201905081810360008301526125cc81611fa3565b9050919050565b600060208201905081810360008301526125ec81612009565b9050919050565b6000602082019050818103600083015261260c8161206f565b9050919050565b6000602082019050818103600083015261262c816120d5565b9050919050565b6000602082019050818103600083015261264c8161213b565b9050919050565b6000602082019050818103600083015261266c816121a1565b9050919050565b6000602082019050818103600083015261268c816121e1565b9050919050565b600060208201905081810360008301526126ac81612247565b9050919050565b600060208201905081810360008301526126cc816122ad565b9050919050565b600060208201905081810360008301526126ec81612313565b9050919050565b6000602082019050818103600083015261270c81612379565b9050919050565b6000602082019050818103600083015261272c816123df565b9050919050565b60006020820190506127486000830184612445565b92915050565b6000604051905081810181811067ffffffffffffffff8211171561277557612774612acc565b5b8060405250919050565b600067ffffffffffffffff82111561279a57612799612acc565b5b601f19601f8301169050602081019050919050565b600067ffffffffffffffff8211156127ca576127c9612acc565b5b601f19601f8301169050602081019050919050565b600081519050919050565b600081519050919050565b600082825260208201905092915050565b600082825260208201905092915050565b600081905092915050565b600061282d82612947565b915061283883612947565b9250827fffffffffffffffffffffffffffffffffffffffffffffffffffffffffffffffff0382111561286d5761286c612a3f565b5b828201905092915050565b600061288382612947565b915061288e83612947565b92508261289e5761289d612a6e565b5b828204905092915050565b60006128b482612947565b91506128bf83612947565b9250828210156128d2576128d1612a3f565b5b828203905092915050565b60006128e882612927565b9050919050565b60008115159050919050565b60007fffffffff0000000000000000000000000000000000000000000000000000000082169050919050565b600073ffffffffffffffffffffffffffffffffffffffff82169050919050565b6000819050919050565b82818337600083830152505050565b60005b8381101561297e578082015181840152602081019050612963565b8381111561298d576000848401525b50505050565b600060028204905060018216806129ab57607f821691505b602082108114156129bf576129be612a9d565b5b50919050565b60006129d082612947565b91507fffffffffffffffffffffffffffffffffffffffffffffffffffffffffffffffff821415612a0357612a02612a3f565b5b600182019050919050565b6000612a1982612947565b9150612a2483612947565b925082612a3457612a33612a6e565b5b828206905092915050565b7f4e487b7100000000000000000000000000000000000000000000000000000000600052601160045260246000fd5b7f4e487b7100000000000000000000000000000000000000000000000000000000600052601260045260246000fd5b7f4e487b7100000000000000000000000000000000000000000000000000000000600052602260045260246000fd5b7f4e487b7100000000000000000000000000000000000000000000000000000000600052604160045260246000fd5b6000601f19601f8301169050919050565b612b15816128dd565b8114612b2057600080fd5b50565b612b2c816128ef565b8114612b3757600080fd5b50565b612b43816128fb565b8114612b4e57600080fd5b50565b612b5a81612947565b8114612b6557600080fd5b5056fea2646970667358221220dedd3440b07b8464a07936a28a93e1ca4a66cf5ef5056bd189596376549c1ec264736f6c63430008000033",
  "immutableReferences": {},
  "source": "// SPDX-License-Identifier: MIT\npragma solidity ^0.8.0;\n\nimport \"@openzeppelin/contracts/token/ERC721/extensions/ERC721URIStorage.sol\";\nimport \"@openzeppelin/contracts/utils/Counters.sol\";\n\ncontract NFTMarket is ERC721URIStorage {\n    using Counters for Counters.Counter;\n    Counters.Counter private tokenIds;\n\n    event NFTCreated(address indexed _to, uint256 indexed _tokenId, string indexed _tokenURI);\n\n    constructor() ERC721(\"Art minter\", \"ART\") {}\n\n    function getLastId() \n        public view\n        returns (uint256) \n    {\n        return tokenIds.current();    \n    }\n\n    function createNFT(string memory _tokenURI)\n        public\n        returns (uint256)\n    {\n        tokenIds.increment();\n\n        uint256 newItemId = tokenIds.current();\n        _safeMint(msg.sender, newItemId);\n        _setTokenURI(newItemId, _tokenURI);\n\n        emit NFTCreated(msg.sender, tokenIds.current(), _tokenURI);\n\n        return newItemId;\n    }\n}",
  "sourcePath": "/Users/paulochade/Desktop/nft/src/contracts/NFTMarket.sol",
  "compiler": {
    "name": "solc",
    "version": "0.8.0+commit.c7dfd78e.Emscripten.clang"
  },
  "schemaVersion": "3.4.3",
  "updatedAt": "2021-11-21T01:13:01.395Z",
  "networkType": "ethereum",
  "devdoc": {
    "kind": "dev",
    "methods": {
      "approve(address,uint256)": {
        "details": "See {IERC721-approve}."
      },
      "balanceOf(address)": {
        "details": "See {IERC721-balanceOf}."
      },
      "getApproved(uint256)": {
        "details": "See {IERC721-getApproved}."
      },
      "isApprovedForAll(address,address)": {
        "details": "See {IERC721-isApprovedForAll}."
      },
      "name()": {
        "details": "See {IERC721Metadata-name}."
      },
      "ownerOf(uint256)": {
        "details": "See {IERC721-ownerOf}."
      },
      "safeTransferFrom(address,address,uint256)": {
        "details": "See {IERC721-safeTransferFrom}."
      },
      "safeTransferFrom(address,address,uint256,bytes)": {
        "details": "See {IERC721-safeTransferFrom}."
      },
      "setApprovalForAll(address,bool)": {
        "details": "See {IERC721-setApprovalForAll}."
      },
      "supportsInterface(bytes4)": {
        "details": "See {IERC165-supportsInterface}."
      },
      "symbol()": {
        "details": "See {IERC721Metadata-symbol}."
      },
      "tokenURI(uint256)": {
        "details": "See {IERC721Metadata-tokenURI}."
      },
      "transferFrom(address,address,uint256)": {
        "details": "See {IERC721-transferFrom}."
      }
    },
    "version": 1
  },
  "userdoc": {
    "kind": "user",
    "methods": {},
    "version": 1
  }
}