{
  "contractName": "NFTMarket",
  "abi": [
    {
      "inputs": [],
      "stateMutability": "nonpayable",
      "type": "constructor"
    },
    {
      "anonymous": false,
      "inputs": [
        {
          "indexed": true,
          "internalType": "address",
          "name": "owner",
          "type": "address"
        },
        {
          "indexed": true,
          "internalType": "address",
          "name": "approved",
          "type": "address"
        },
        {
          "indexed": true,
          "internalType": "uint256",
          "name": "tokenId",
          "type": "uint256"
        }
      ],
      "name": "Approval",
      "type": "event"
    },
    {
      "anonymous": false,
      "inputs": [
        {
          "indexed": true,
          "internalType": "address",
          "name": "owner",
          "type": "address"
        },
        {
          "indexed": true,
          "internalType": "address",
          "name": "operator",
          "type": "address"
        },
        {
          "indexed": false,
          "internalType": "bool",
          "name": "approved",
          "type": "bool"
        }
      ],
      "name": "ApprovalForAll",
      "type": "event"
    },
    {
      "anonymous": false,
      "inputs": [
        {
          "indexed": true,
          "internalType": "address",
          "name": "_to",
          "type": "address"
        },
        {
          "indexed": true,
          "internalType": "uint256",
          "name": "_tokenId",
          "type": "uint256"
        },
        {
          "indexed": true,
          "internalType": "string",
          "name": "_tokenURI",
          "type": "string"
        }
      ],
      "name": "NFTCreated",
      "type": "event"
    },
    {
      "anonymous": false,
      "inputs": [
        {
          "indexed": true,
          "internalType": "address",
          "name": "from",
          "type": "address"
        },
        {
          "indexed": true,
          "internalType": "address",
          "name": "to",
          "type": "address"
        },
        {
          "indexed": true,
          "internalType": "uint256",
          "name": "tokenId",
          "type": "uint256"
        }
      ],
      "name": "Transfer",
      "type": "event"
    },
    {
      "inputs": [
        {
          "internalType": "address",
          "name": "to",
          "type": "address"
        },
        {
          "internalType": "uint256",
          "name": "tokenId",
          "type": "uint256"
        }
      ],
      "name": "approve",
      "outputs": [],
      "stateMutability": "nonpayable",
      "type": "function"
    },
    {
      "inputs": [
        {
          "internalType": "address",
          "name": "owner",
          "type": "address"
        }
      ],
      "name": "balanceOf",
      "outputs": [
        {
          "internalType": "uint256",
          "name": "",
          "type": "uint256"
        }
      ],
      "stateMutability": "view",
      "type": "function",
      "constant": true
    },
    {
      "inputs": [
        {
          "internalType": "uint256",
          "name": "tokenId",
          "type": "uint256"
        }
      ],
      "name": "getApproved",
      "outputs": [
        {
          "internalType": "address",
          "name": "",
          "type": "address"
        }
      ],
      "stateMutability": "view",
      "type": "function",
      "constant": true
    },
    {
      "inputs": [
        {
          "internalType": "address",
          "name": "owner",
          "type": "address"
        },
        {
          "internalType": "address",
          "name": "operator",
          "type": "address"
        }
      ],
      "name": "isApprovedForAll",
      "outputs": [
        {
          "internalType": "bool",
          "name": "",
          "type": "bool"
        }
      ],
      "stateMutability": "view",
      "type": "function",
      "constant": true
    },
    {
      "inputs": [],
      "name": "name",
      "outputs": [
        {
          "internalType": "string",
          "name": "",
          "type": "string"
        }
      ],
      "stateMutability": "view",
      "type": "function",
      "constant": true
    },
    {
      "inputs": [
        {
          "internalType": "uint256",
          "name": "tokenId",
          "type": "uint256"
        }
      ],
      "name": "ownerOf",
      "outputs": [
        {
          "internalType": "address",
          "name": "",
          "type": "address"
        }
      ],
      "stateMutability": "view",
      "type": "function",
      "constant": true
    },
    {
      "inputs": [
        {
          "internalType": "address",
          "name": "from",
          "type": "address"
        },
        {
          "internalType": "address",
          "name": "to",
          "type": "address"
        },
        {
          "internalType": "uint256",
          "name": "tokenId",
          "type": "uint256"
        }
      ],
      "name": "safeTransferFrom",
      "outputs": [],
      "stateMutability": "nonpayable",
      "type": "function"
    },
    {
      "inputs": [
        {
          "internalType": "address",
          "name": "from",
          "type": "address"
        },
        {
          "internalType": "address",
          "name": "to",
          "type": "address"
        },
        {
          "internalType": "uint256",
          "name": "tokenId",
          "type": "uint256"
        },
        {
          "internalType": "bytes",
          "name": "_data",
          "type": "bytes"
        }
      ],
      "name": "safeTransferFrom",
      "outputs": [],
      "stateMutability": "nonpayable",
      "type": "function"
    },
    {
      "inputs": [
        {
          "internalType": "address",
          "name": "operator",
          "type": "address"
        },
        {
          "internalType": "bool",
          "name": "approved",
          "type": "bool"
        }
      ],
      "name": "setApprovalForAll",
      "outputs": [],
      "stateMutability": "nonpayable",
      "type": "function"
    },
    {
      "inputs": [
        {
          "internalType": "bytes4",
          "name": "interfaceId",
          "type": "bytes4"
        }
      ],
      "name": "supportsInterface",
      "outputs": [
        {
          "internalType": "bool",
          "name": "",
          "type": "bool"
        }
      ],
      "stateMutability": "view",
      "type": "function",
      "constant": true
    },
    {
      "inputs": [],
      "name": "symbol",
      "outputs": [
        {
          "internalType": "string",
          "name": "",
          "type": "string"
        }
      ],
      "stateMutability": "view",
      "type": "function",
      "constant": true
    },
    {
      "inputs": [
        {
          "internalType": "uint256",
          "name": "tokenId",
          "type": "uint256"
        }
      ],
      "name": "tokenURI",
      "outputs": [
        {
          "internalType": "string",
          "name": "",
          "type": "string"
        }
      ],
      "stateMutability": "view",
      "type": "function",
      "constant": true
    },
    {
      "inputs": [
        {
          "internalType": "address",
          "name": "from",
          "type": "address"
        },
        {
          "internalType": "address",
          "name": "to",
          "type": "address"
        },
        {
          "internalType": "uint256",
          "name": "tokenId",
          "type": "uint256"
        }
      ],
      "name": "transferFrom",
      "outputs": [],
      "stateMutability": "nonpayable",
      "type": "function"
    },
    {
      "inputs": [],
      "name": "getLastId",
      "outputs": [
        {
          "internalType": "uint256",
          "name": "",
          "type": "uint256"
        }
      ],
      "stateMutability": "view",
      "type": "function",
      "constant": true
    },
    {
      "inputs": [
        {
          "internalType": "address",
          "name": "_receiver",
          "type": "address"
        },
        {
          "internalType": "string",
          "name": "_tokenURI",
          "type": "string"
        }
      ],
      "name": "createNFT",
      "outputs": [
        {
          "internalType": "uint256",
          "name": "",
          "type": "uint256"
        }
      ],
      "stateMutability": "nonpayable",
      "type": "function"
    }
  ],
  "bytecode": "0x60806040523480156200001157600080fd5b506040518060400160405280600a81526020017f417274206d696e746572000000000000000000000000000000000000000000008152506040518060400160405280600381526020017f4152540000000000000000000000000000000000000000000000000000000000815250816000908051906020019062000096929190620000b8565b508060019080519060200190620000af929190620000b8565b505050620001cd565b828054620000c69062000168565b90600052602060002090601f016020900481019282620000ea576000855562000136565b82601f106200010557805160ff191683800117855562000136565b8280016001018555821562000136579182015b828111156200013557825182559160200191906001019062000118565b5b50905062000145919062000149565b5090565b5b80821115620001645760008160009055506001016200014a565b5090565b600060028204905060018216806200018157607f821691505b602082108114156200019857620001976200019e565b5b50919050565b7f4e487b7100000000000000000000000000000000000000000000000000000000600052602260045260246000fd5b612bb280620001dd6000396000f3fe608060405234801561001057600080fd5b50600436106100f55760003560e01c806370a0823111610097578063a8e5862d11610066578063a8e5862d14610296578063b88d4fde146102b4578063c87b56dd146102d0578063e985e9c514610300576100f5565b806370a08231146101fc57806395d89b411461022c578063a22cb4651461024a578063a561403314610266576100f5565b8063095ea7b3116100d3578063095ea7b31461017857806323b872dd1461019457806342842e0e146101b05780636352211e146101cc576100f5565b806301ffc9a7146100fa57806306fdde031461012a578063081812fc14610148575b600080fd5b610114600480360381019061010f9190611d2f565b610330565b604051610121919061250a565b60405180910390f35b610132610412565b60405161013f9190612525565b60405180910390f35b610162600480360381019061015d9190611d81565b6104a4565b60405161016f91906124a3565b60405180910390f35b610192600480360381019061018d9190611cf3565b610529565b005b6101ae60048036038101906101a99190611b99565b610641565b005b6101ca60048036038101906101c59190611b99565b6106a1565b005b6101e660048036038101906101e19190611d81565b6106c1565b6040516101f391906124a3565b60405180910390f35b61021660048036038101906102119190611b34565b610773565b6040516102239190612747565b60405180910390f35b61023461082b565b6040516102419190612525565b60405180910390f35b610264600480360381019061025f9190611c63565b6108bd565b005b610280600480360381019061027b9190611c9f565b610a3e565b60405161028d9190612747565b60405180910390f35b61029e610ad9565b6040516102ab9190612747565b60405180910390f35b6102ce60048036038101906102c99190611be8565b610aea565b005b6102ea60048036038101906102e59190611d81565b610b4c565b6040516102f79190612525565b60405180910390f35b61031a60048036038101906103159190611b5d565b610c9e565b604051610327919061250a565b60405180910390f35b60007f80ac58cd000000000000000000000000000000000000000000000000000000007bffffffffffffffffffffffffffffffffffffffffffffffffffffffff1916827bffffffffffffffffffffffffffffffffffffffffffffffffffffffff191614806103fb57507f5b5e139f000000000000000000000000000000000000000000000000000000007bffffffffffffffffffffffffffffffffffffffffffffffffffffffff1916827bffffffffffffffffffffffffffffffffffffffffffffffffffffffff1916145b8061040b575061040a82610d32565b5b9050919050565b606060008054610421906129a7565b80601f016020809104026020016040519081016040528092919081815260200182805461044d906129a7565b801561049a5780601f1061046f5761010080835404028352916020019161049a565b820191906000526020600020905b81548152906001019060200180831161047d57829003601f168201915b5050505050905090565b60006104af82610d9c565b6104ee576040517f08c379a00000000000000000000000000000000000000000000000000000000081526004016104e5906126a7565b60405180910390fd5b6004600083815260200190815260200160002060009054906101000a900473ffffffffffffffffffffffffffffffffffffffff169050919050565b6000610534826106c1565b90508073ffffffffffffffffffffffffffffffffffffffff168373ffffffffffffffffffffffffffffffffffffffff1614156105a5576040517f08c379a000000000000000000000000000000000000000000000000000000000815260040161059c90612707565b60405180910390fd5b8073ffffffffffffffffffffffffffffffffffffffff166105c4610e08565b73ffffffffffffffffffffffffffffffffffffffff1614806105f357506105f2816105ed610e08565b610c9e565b5b610632576040517f08c379a0000000000000000000000000000000000000000000000000000000008152600401610629906125e7565b60405180910390fd5b61063c8383610e10565b505050565b61065261064c610e08565b82610ec9565b610691576040517f08c379a000000000000000000000000000000000000000000000000000000000815260040161068890612727565b60405180910390fd5b61069c838383610fa7565b505050565b6106bc83838360405180602001604052806000815250610aea565b505050565b6000806002600084815260200190815260200160002060009054906101000a900473ffffffffffffffffffffffffffffffffffffffff169050600073ffffffffffffffffffffffffffffffffffffffff168173ffffffffffffffffffffffffffffffffffffffff16141561076a576040517f08c379a000000000000000000000000000000000000000000000000000000000815260040161076190612627565b60405180910390fd5b80915050919050565b60008073ffffffffffffffffffffffffffffffffffffffff168273ffffffffffffffffffffffffffffffffffffffff1614156107e4576040517f08c379a00000000000000000000000000000000000000000000000000000000081526004016107db90612607565b60405180910390fd5b600360008373ffffffffffffffffffffffffffffffffffffffff1673ffffffffffffffffffffffffffffffffffffffff168152602001908152602001600020549050919050565b60606001805461083a906129a7565b80601f0160208091040260200160405190810160405280929190818152602001828054610866906129a7565b80156108b35780601f10610888576101008083540402835291602001916108b3565b820191906000526020600020905b81548152906001019060200180831161089657829003601f168201915b5050505050905090565b6108c5610e08565b73ffffffffffffffffffffffffffffffffffffffff168273ffffffffffffffffffffffffffffffffffffffff161415610933576040517f08c379a000000000000000000000000000000000000000000000000000000000815260040161092a906125a7565b60405180910390fd5b8060056000610940610e08565b73ffffffffffffffffffffffffffffffffffffffff1673ffffffffffffffffffffffffffffffffffffffff16815260200190815260200160002060008473ffffffffffffffffffffffffffffffffffffffff1673ffffffffffffffffffffffffffffffffffffffff16815260200190815260200160002060006101000a81548160ff0219169083151502179055508173ffffffffffffffffffffffffffffffffffffffff166109ed610e08565b73ffffffffffffffffffffffffffffffffffffffff167f17307eab39ab6107e8899845ad3d59bd9653f200f220920489ca2b5937696c3183604051610a32919061250a565b60405180910390a35050565b6000610a4a6007611203565b6000610a566007611219565b9050610a628482611227565b610a6c8184611245565b82604051610a7a9190612468565b6040518091039020610a8c6007611219565b8573ffffffffffffffffffffffffffffffffffffffff167f403f45e064e1472b925888509d0e5164b4642f3064c519d162e3b9261c204adc60405160405180910390a48091505092915050565b6000610ae56007611219565b905090565b610afb610af5610e08565b83610ec9565b610b3a576040517f08c379a0000000000000000000000000000000000000000000000000000000008152600401610b3190612727565b60405180910390fd5b610b46848484846112b9565b50505050565b6060610b5782610d9c565b610b96576040517f08c379a0000000000000000000000000000000000000000000000000000000008152600401610b8d90612687565b60405180910390fd5b6000600660008481526020019081526020016000208054610bb6906129a7565b80601f0160208091040260200160405190810160405280929190818152602001828054610be2906129a7565b8015610c2f5780601f10610c0457610100808354040283529160200191610c2f565b820191906000526020600020905b815481529060010190602001808311610c1257829003601f168201915b505050505090506000610c40611315565b9050600081511415610c56578192505050610c99565b600082511115610c8b578082604051602001610c7392919061247f565b60405160208183030381529060405292505050610c99565b610c948461132c565b925050505b919050565b6000600560008473ffffffffffffffffffffffffffffffffffffffff1673ffffffffffffffffffffffffffffffffffffffff16815260200190815260200160002060008373ffffffffffffffffffffffffffffffffffffffff1673ffffffffffffffffffffffffffffffffffffffff16815260200190815260200160002060009054906101000a900460ff16905092915050565b60007f01ffc9a7000000000000000000000000000000000000000000000000000000007bffffffffffffffffffffffffffffffffffffffffffffffffffffffff1916827bffffffffffffffffffffffffffffffffffffffffffffffffffffffff1916149050919050565b60008073ffffffffffffffffffffffffffffffffffffffff166002600084815260200190815260200160002060009054906101000a900473ffffffffffffffffffffffffffffffffffffffff1673ffffffffffffffffffffffffffffffffffffffff1614159050919050565b600033905090565b816004600083815260200190815260200160002060006101000a81548173ffffffffffffffffffffffffffffffffffffffff021916908373ffffffffffffffffffffffffffffffffffffffff160217905550808273ffffffffffffffffffffffffffffffffffffffff16610e83836106c1565b73ffffffffffffffffffffffffffffffffffffffff167f8c5be1e5ebec7d5bd14f71427d1e84f3dd0314c0f7b2291e5b200ac8c7c3b92560405160405180910390a45050565b6000610ed482610d9c565b610f13576040517f08c379a0000000000000000000000000000000000000000000000000000000008152600401610f0a906125c7565b60405180910390fd5b6000610f1e836106c1565b90508073ffffffffffffffffffffffffffffffffffffffff168473ffffffffffffffffffffffffffffffffffffffff161480610f8d57508373ffffffffffffffffffffffffffffffffffffffff16610f75846104a4565b73ffffffffffffffffffffffffffffffffffffffff16145b80610f9e5750610f9d8185610c9e565b5b91505092915050565b8273ffffffffffffffffffffffffffffffffffffffff16610fc7826106c1565b73ffffffffffffffffffffffffffffffffffffffff161461101d576040517f08c379a0000000000000000000000000000000000000000000000000000000008152600401611014906126c7565b60405180910390fd5b600073ffffffffffffffffffffffffffffffffffffffff168273ffffffffffffffffffffffffffffffffffffffff16141561108d576040517f08c379a000000000000000000000000000000000000000000000000000000000815260040161108490612587565b60405180910390fd5b6110988383836113d3565b6110a3600082610e10565b6001600360008573ffffffffffffffffffffffffffffffffffffffff1673ffffffffffffffffffffffffffffffffffffffff16815260200190815260200160002060008282546110f391906128bd565b925050819055506001600360008473ffffffffffffffffffffffffffffffffffffffff1673ffffffffffffffffffffffffffffffffffffffff168152602001908152602001600020600082825461114a9190612836565b92505081905550816002600083815260200190815260200160002060006101000a81548173ffffffffffffffffffffffffffffffffffffffff021916908373ffffffffffffffffffffffffffffffffffffffff160217905550808273ffffffffffffffffffffffffffffffffffffffff168473ffffffffffffffffffffffffffffffffffffffff167fddf252ad1be2c89b69c2b068fc378daa952ba7f163c4a11628f55a4df523b3ef60405160405180910390a4505050565b6001816000016000828254019250508190555050565b600081600001549050919050565b6112418282604051806020016040528060008152506113d8565b5050565b61124e82610d9c565b61128d576040517f08c379a000000000000000000000000000000000000000000000000000000000815260040161128490612647565b60405180910390fd5b806006600084815260200190815260200160002090805190602001906112b4929190611958565b505050565b6112c4848484610fa7565b6112d084848484611433565b61130f576040517f08c379a000000000000000000000000000000000000000000000000000000000815260040161130690612547565b60405180910390fd5b50505050565b606060405180602001604052806000815250905090565b606061133782610d9c565b611376576040517f08c379a000000000000000000000000000000000000000000000000000000000815260040161136d906126e7565b60405180910390fd5b6000611380611315565b905060008151116113a057604051806020016040528060008152506113cb565b806113aa846115ca565b6040516020016113bb92919061247f565b6040516020818303038152906040525b915050919050565b505050565b6113e28383611777565b6113ef6000848484611433565b61142e576040517f08c379a000000000000000000000000000000000000000000000000000000000815260040161142590612547565b60405180910390fd5b505050565b60006114548473ffffffffffffffffffffffffffffffffffffffff16611945565b156115bd578373ffffffffffffffffffffffffffffffffffffffff1663150b7a0261147d610e08565b8786866040518563ffffffff1660e01b815260040161149f94939291906124be565b602060405180830381600087803b1580156114b957600080fd5b505af19250505080156114ea57506040513d601f19601f820116820180604052508101906114e79190611d58565b60015b61156d573d806000811461151a576040519150601f19603f3d011682016040523d82523d6000602084013e61151f565b606091505b50600081511415611565576040517f08c379a000000000000000000000000000000000000000000000000000000000815260040161155c90612547565b60405180910390fd5b805181602001fd5b63150b7a0260e01b7bffffffffffffffffffffffffffffffffffffffffffffffffffffffff1916817bffffffffffffffffffffffffffffffffffffffffffffffffffffffff1916149150506115c2565b600190505b949350505050565b60606000821415611612576040518060400160405280600181526020017f30000000000000000000000000000000000000000000000000000000000000008152509050611772565b600082905060005b6000821461164457808061162d906129d9565b915050600a8261163d919061288c565b915061161a565b60008167ffffffffffffffff811115611686577f4e487b7100000000000000000000000000000000000000000000000000000000600052604160045260246000fd5b6040519080825280601f01601f1916602001820160405280156116b85781602001600182028036833780820191505090505b5090505b6000851461176b576001826116d191906128bd565b9150600a856116e09190612a22565b60306116ec9190612836565b60f81b818381518110611728577f4e487b7100000000000000000000000000000000000000000000000000000000600052603260045260246000fd5b60200101907effffffffffffffffffffffffffffffffffffffffffffffffffffffffffffff1916908160001a905350600a85611764919061288c565b94506116bc565b8093505050505b919050565b600073ffffffffffffffffffffffffffffffffffffffff168273ffffffffffffffffffffffffffffffffffffffff1614156117e7576040517f08c379a00000000000000000000000000000000000000000000000000000000081526004016117de90612667565b60405180910390fd5b6117f081610d9c565b15611830576040517f08c379a000000000000000000000000000000000000000000000000000000000815260040161182790612567565b60405180910390fd5b61183c600083836113d3565b6001600360008473ffffffffffffffffffffffffffffffffffffffff1673ffffffffffffffffffffffffffffffffffffffff168152602001908152602001600020600082825461188c9190612836565b92505081905550816002600083815260200190815260200160002060006101000a81548173ffffffffffffffffffffffffffffffffffffffff021916908373ffffffffffffffffffffffffffffffffffffffff160217905550808273ffffffffffffffffffffffffffffffffffffffff16600073ffffffffffffffffffffffffffffffffffffffff167fddf252ad1be2c89b69c2b068fc378daa952ba7f163c4a11628f55a4df523b3ef60405160405180910390a45050565b600080823b905060008111915050919050565b828054611964906129a7565b90600052602060002090601f01602090048101928261198657600085556119cd565b82601f1061199f57805160ff19168380011785556119cd565b828001600101855582156119cd579182015b828111156119cc5782518255916020019190600101906119b1565b5b5090506119da91906119de565b5090565b5b808211156119f75760008160009055506001016119df565b5090565b6000611a0e611a0984612793565b612762565b905082815260208101848484011115611a2657600080fd5b611a31848285612965565b509392505050565b6000611a4c611a47846127c3565b612762565b905082815260208101848484011115611a6457600080fd5b611a6f848285612965565b509392505050565b600081359050611a8681612b20565b92915050565b600081359050611a9b81612b37565b92915050565b600081359050611ab081612b4e565b92915050565b600081519050611ac581612b4e565b92915050565b600082601f830112611adc57600080fd5b8135611aec8482602086016119fb565b91505092915050565b600082601f830112611b0657600080fd5b8135611b16848260208601611a39565b91505092915050565b600081359050611b2e81612b65565b92915050565b600060208284031215611b4657600080fd5b6000611b5484828501611a77565b91505092915050565b60008060408385031215611b7057600080fd5b6000611b7e85828601611a77565b9250506020611b8f85828601611a77565b9150509250929050565b600080600060608486031215611bae57600080fd5b6000611bbc86828701611a77565b9350506020611bcd86828701611a77565b9250506040611bde86828701611b1f565b9150509250925092565b60008060008060808587031215611bfe57600080fd5b6000611c0c87828801611a77565b9450506020611c1d87828801611a77565b9350506040611c2e87828801611b1f565b925050606085013567ffffffffffffffff811115611c4b57600080fd5b611c5787828801611acb565b91505092959194509250565b60008060408385031215611c7657600080fd5b6000611c8485828601611a77565b9250506020611c9585828601611a8c565b9150509250929050565b60008060408385031215611cb257600080fd5b6000611cc085828601611a77565b925050602083013567ffffffffffffffff811115611cdd57600080fd5b611ce985828601611af5565b9150509250929050565b60008060408385031215611d0657600080fd5b6000611d1485828601611a77565b9250506020611d2585828601611b1f565b9150509250929050565b600060208284031215611d4157600080fd5b6000611d4f84828501611aa1565b91505092915050565b600060208284031215611d6a57600080fd5b6000611d7884828501611ab6565b91505092915050565b600060208284031215611d9357600080fd5b6000611da184828501611b1f565b91505092915050565b611db3816128f1565b82525050565b611dc281612903565b82525050565b6000611dd3826127f3565b611ddd8185612809565b9350611ded818560208601612974565b611df681612b0f565b840191505092915050565b6000611e0c826127fe565b611e16818561281a565b9350611e26818560208601612974565b611e2f81612b0f565b840191505092915050565b6000611e45826127fe565b611e4f818561282b565b9350611e5f818560208601612974565b80840191505092915050565b6000611e7860328361281a565b91507f4552433732313a207472616e7366657220746f206e6f6e20455243373231526560008301527f63656976657220696d706c656d656e74657200000000000000000000000000006020830152604082019050919050565b6000611ede601c8361281a565b91507f4552433732313a20746f6b656e20616c7265616479206d696e746564000000006000830152602082019050919050565b6000611f1e60248361281a565b91507f4552433732313a207472616e7366657220746f20746865207a65726f2061646460008301527f72657373000000000000000000000000000000000000000000000000000000006020830152604082019050919050565b6000611f8460198361281a565b91507f4552433732313a20617070726f766520746f2063616c6c6572000000000000006000830152602082019050919050565b6000611fc4602c8361281a565b91507f4552433732313a206f70657261746f7220717565727920666f72206e6f6e657860008301527f697374656e7420746f6b656e00000000000000000000000000000000000000006020830152604082019050919050565b600061202a60388361281a565b91507f4552433732313a20617070726f76652063616c6c6572206973206e6f74206f7760008301527f6e6572206e6f7220617070726f76656420666f7220616c6c00000000000000006020830152604082019050919050565b6000612090602a8361281a565b91507f4552433732313a2062616c616e636520717565727920666f7220746865207a6560008301527f726f2061646472657373000000000000000000000000000000000000000000006020830152604082019050919050565b60006120f660298361281a565b91507f4552433732313a206f776e657220717565727920666f72206e6f6e657869737460008301527f656e7420746f6b656e00000000000000000000000000000000000000000000006020830152604082019050919050565b600061215c602e8361281a565b91507f45524337323155524953746f726167653a2055524920736574206f66206e6f6e60008301527f6578697374656e7420746f6b656e0000000000000000000000000000000000006020830152604082019050919050565b60006121c260208361281a565b91507f4552433732313a206d696e7420746f20746865207a65726f20616464726573736000830152602082019050919050565b600061220260318361281a565b91507f45524337323155524953746f726167653a2055524920717565727920666f722060008301527f6e6f6e6578697374656e7420746f6b656e0000000000000000000000000000006020830152604082019050919050565b6000612268602c8361281a565b91507f4552433732313a20617070726f76656420717565727920666f72206e6f6e657860008301527f697374656e7420746f6b656e00000000000000000000000000000000000000006020830152604082019050919050565b60006122ce60298361281a565b91507f4552433732313a207472616e73666572206f6620746f6b656e2074686174206960008301527f73206e6f74206f776e00000000000000000000000000000000000000000000006020830152604082019050919050565b6000612334602f8361281a565b91507f4552433732314d657461646174613a2055524920717565727920666f72206e6f60008301527f6e6578697374656e7420746f6b656e00000000000000000000000000000000006020830152604082019050919050565b600061239a60218361281a565b91507f4552433732313a20617070726f76616c20746f2063757272656e74206f776e6560008301527f72000000000000000000000000000000000000000000000000000000000000006020830152604082019050919050565b600061240060318361281a565b91507f4552433732313a207472616e736665722063616c6c6572206973206e6f74206f60008301527f776e6572206e6f7220617070726f7665640000000000000000000000000000006020830152604082019050919050565b6124628161295b565b82525050565b60006124748284611e3a565b915081905092915050565b600061248b8285611e3a565b91506124978284611e3a565b91508190509392505050565b60006020820190506124b86000830184611daa565b92915050565b60006080820190506124d36000830187611daa565b6124e06020830186611daa565b6124ed6040830185612459565b81810360608301526124ff8184611dc8565b905095945050505050565b600060208201905061251f6000830184611db9565b92915050565b6000602082019050818103600083015261253f8184611e01565b905092915050565b6000602082019050818103600083015261256081611e6b565b9050919050565b6000602082019050818103600083015261258081611ed1565b9050919050565b600060208201905081810360008301526125a081611f11565b9050919050565b600060208201905081810360008301526125c081611f77565b9050919050565b600060208201905081810360008301526125e081611fb7565b9050919050565b600060208201905081810360008301526126008161201d565b9050919050565b6000602082019050818103600083015261262081612083565b9050919050565b60006020820190508181036000830152612640816120e9565b9050919050565b600060208201905081810360008301526126608161214f565b9050919050565b60006020820190508181036000830152612680816121b5565b9050919050565b600060208201905081810360008301526126a0816121f5565b9050919050565b600060208201905081810360008301526126c08161225b565b9050919050565b600060208201905081810360008301526126e0816122c1565b9050919050565b6000602082019050818103600083015261270081612327565b9050919050565b600060208201905081810360008301526127208161238d565b9050919050565b60006020820190508181036000830152612740816123f3565b9050919050565b600060208201905061275c6000830184612459565b92915050565b6000604051905081810181811067ffffffffffffffff8211171561278957612788612ae0565b5b8060405250919050565b600067ffffffffffffffff8211156127ae576127ad612ae0565b5b601f19601f8301169050602081019050919050565b600067ffffffffffffffff8211156127de576127dd612ae0565b5b601f19601f8301169050602081019050919050565b600081519050919050565b600081519050919050565b600082825260208201905092915050565b600082825260208201905092915050565b600081905092915050565b60006128418261295b565b915061284c8361295b565b9250827fffffffffffffffffffffffffffffffffffffffffffffffffffffffffffffffff0382111561288157612880612a53565b5b828201905092915050565b60006128978261295b565b91506128a28361295b565b9250826128b2576128b1612a82565b5b828204905092915050565b60006128c88261295b565b91506128d38361295b565b9250828210156128e6576128e5612a53565b5b828203905092915050565b60006128fc8261293b565b9050919050565b60008115159050919050565b60007fffffffff0000000000000000000000000000000000000000000000000000000082169050919050565b600073ffffffffffffffffffffffffffffffffffffffff82169050919050565b6000819050919050565b82818337600083830152505050565b60005b83811015612992578082015181840152602081019050612977565b838111156129a1576000848401525b50505050565b600060028204905060018216806129bf57607f821691505b602082108114156129d3576129d2612ab1565b5b50919050565b60006129e48261295b565b91507fffffffffffffffffffffffffffffffffffffffffffffffffffffffffffffffff821415612a1757612a16612a53565b5b600182019050919050565b6000612a2d8261295b565b9150612a388361295b565b925082612a4857612a47612a82565b5b828206905092915050565b7f4e487b7100000000000000000000000000000000000000000000000000000000600052601160045260246000fd5b7f4e487b7100000000000000000000000000000000000000000000000000000000600052601260045260246000fd5b7f4e487b7100000000000000000000000000000000000000000000000000000000600052602260045260246000fd5b7f4e487b7100000000000000000000000000000000000000000000000000000000600052604160045260246000fd5b6000601f19601f8301169050919050565b612b29816128f1565b8114612b3457600080fd5b50565b612b4081612903565b8114612b4b57600080fd5b50565b612b578161290f565b8114612b6257600080fd5b50565b612b6e8161295b565b8114612b7957600080fd5b5056fea26469706673582212206b0f8330c2df478a7df0fdcbf237251a74bac9fc154d106a7df1cc8e0340fc7d64736f6c63430008000033",
  "immutableReferences": {},
  "source": "// SPDX-License-Identifier: MIT\npragma solidity ^0.8.0;\n\nimport \"@openzeppelin/contracts/token/ERC721/extensions/ERC721URIStorage.sol\";\nimport \"@openzeppelin/contracts/utils/Counters.sol\";\n\ncontract NFTMarket is ERC721URIStorage {\n    using Counters for Counters.Counter;\n    Counters.Counter private tokenIds;\n\n    event NFTCreated(address indexed _to, uint256 indexed _tokenId, string indexed _tokenURI);\n\n    constructor() ERC721(\"Art minter\", \"ART\") {}\n\n    function getLastId() \n        public view\n        returns (uint256) \n    {\n        return tokenIds.current();    \n    }\n\n    function createNFT(address _receiver, string memory _tokenURI)\n        public\n        returns (uint256)\n    {\n        tokenIds.increment();\n\n        uint256 newItemId = tokenIds.current();\n        _safeMint(_receiver, newItemId);\n        _setTokenURI(newItemId, _tokenURI);\n\n        emit NFTCreated(_receiver, tokenIds.current(), _tokenURI);\n\n        return newItemId;\n    }\n}",
  "sourcePath": "/Users/paulochade/Desktop/nft/src/contracts/NFTMarket.sol",
  "compiler": {
    "name": "solc",
    "version": "0.8.0+commit.c7dfd78e.Emscripten.clang"
  },
  "schemaVersion": "3.4.3",
  "updatedAt": "2021-11-20T17:25:45.650Z",
  "networkType": "ethereum",
  "devdoc": {
    "kind": "dev",
    "methods": {
      "approve(address,uint256)": {
        "details": "See {IERC721-approve}."
      },
      "balanceOf(address)": {
        "details": "See {IERC721-balanceOf}."
      },
      "getApproved(uint256)": {
        "details": "See {IERC721-getApproved}."
      },
      "isApprovedForAll(address,address)": {
        "details": "See {IERC721-isApprovedForAll}."
      },
      "name()": {
        "details": "See {IERC721Metadata-name}."
      },
      "ownerOf(uint256)": {
        "details": "See {IERC721-ownerOf}."
      },
      "safeTransferFrom(address,address,uint256)": {
        "details": "See {IERC721-safeTransferFrom}."
      },
      "safeTransferFrom(address,address,uint256,bytes)": {
        "details": "See {IERC721-safeTransferFrom}."
      },
      "setApprovalForAll(address,bool)": {
        "details": "See {IERC721-setApprovalForAll}."
      },
      "supportsInterface(bytes4)": {
        "details": "See {IERC165-supportsInterface}."
      },
      "symbol()": {
        "details": "See {IERC721Metadata-symbol}."
      },
      "tokenURI(uint256)": {
        "details": "See {IERC721Metadata-tokenURI}."
      },
      "transferFrom(address,address,uint256)": {
        "details": "See {IERC721-transferFrom}."
      }
    },
    "version": 1
  },
  "userdoc": {
    "kind": "user",
    "methods": {},
    "version": 1
  }
}