{
  "contractName": "NFTMarket",
  "abi": [
    {
      "inputs": [],
      "stateMutability": "nonpayable",
      "type": "constructor"
    },
    {
      "anonymous": false,
      "inputs": [
        {
          "indexed": true,
          "internalType": "address",
          "name": "owner",
          "type": "address"
        },
        {
          "indexed": true,
          "internalType": "address",
          "name": "approved",
          "type": "address"
        },
        {
          "indexed": true,
          "internalType": "uint256",
          "name": "tokenId",
          "type": "uint256"
        }
      ],
      "name": "Approval",
      "type": "event"
    },
    {
      "anonymous": false,
      "inputs": [
        {
          "indexed": true,
          "internalType": "address",
          "name": "owner",
          "type": "address"
        },
        {
          "indexed": true,
          "internalType": "address",
          "name": "operator",
          "type": "address"
        },
        {
          "indexed": false,
          "internalType": "bool",
          "name": "approved",
          "type": "bool"
        }
      ],
      "name": "ApprovalForAll",
      "type": "event"
    },
    {
      "anonymous": false,
      "inputs": [
        {
          "indexed": true,
          "internalType": "address",
          "name": "_to",
          "type": "address"
        },
        {
          "indexed": true,
          "internalType": "uint256",
          "name": "_tokenId",
          "type": "uint256"
        },
        {
          "indexed": false,
          "internalType": "string",
          "name": "_tokenURI",
          "type": "string"
        }
      ],
      "name": "NFTCreated",
      "type": "event"
    },
    {
      "anonymous": false,
      "inputs": [
        {
          "indexed": true,
          "internalType": "address",
          "name": "from",
          "type": "address"
        },
        {
          "indexed": true,
          "internalType": "address",
          "name": "to",
          "type": "address"
        },
        {
          "indexed": true,
          "internalType": "uint256",
          "name": "tokenId",
          "type": "uint256"
        }
      ],
      "name": "Transfer",
      "type": "event"
    },
    {
      "inputs": [
        {
          "internalType": "address",
          "name": "to",
          "type": "address"
        },
        {
          "internalType": "uint256",
          "name": "tokenId",
          "type": "uint256"
        }
      ],
      "name": "approve",
      "outputs": [],
      "stateMutability": "nonpayable",
      "type": "function"
    },
    {
      "inputs": [
        {
          "internalType": "address",
          "name": "owner",
          "type": "address"
        }
      ],
      "name": "balanceOf",
      "outputs": [
        {
          "internalType": "uint256",
          "name": "",
          "type": "uint256"
        }
      ],
      "stateMutability": "view",
      "type": "function",
      "constant": true
    },
    {
      "inputs": [
        {
          "internalType": "uint256",
          "name": "tokenId",
          "type": "uint256"
        }
      ],
      "name": "getApproved",
      "outputs": [
        {
          "internalType": "address",
          "name": "",
          "type": "address"
        }
      ],
      "stateMutability": "view",
      "type": "function",
      "constant": true
    },
    {
      "inputs": [
        {
          "internalType": "address",
          "name": "owner",
          "type": "address"
        },
        {
          "internalType": "address",
          "name": "operator",
          "type": "address"
        }
      ],
      "name": "isApprovedForAll",
      "outputs": [
        {
          "internalType": "bool",
          "name": "",
          "type": "bool"
        }
      ],
      "stateMutability": "view",
      "type": "function",
      "constant": true
    },
    {
      "inputs": [],
      "name": "name",
      "outputs": [
        {
          "internalType": "string",
          "name": "",
          "type": "string"
        }
      ],
      "stateMutability": "view",
      "type": "function",
      "constant": true
    },
    {
      "inputs": [
        {
          "internalType": "uint256",
          "name": "tokenId",
          "type": "uint256"
        }
      ],
      "name": "ownerOf",
      "outputs": [
        {
          "internalType": "address",
          "name": "",
          "type": "address"
        }
      ],
      "stateMutability": "view",
      "type": "function",
      "constant": true
    },
    {
      "inputs": [
        {
          "internalType": "address",
          "name": "from",
          "type": "address"
        },
        {
          "internalType": "address",
          "name": "to",
          "type": "address"
        },
        {
          "internalType": "uint256",
          "name": "tokenId",
          "type": "uint256"
        }
      ],
      "name": "safeTransferFrom",
      "outputs": [],
      "stateMutability": "nonpayable",
      "type": "function"
    },
    {
      "inputs": [
        {
          "internalType": "address",
          "name": "from",
          "type": "address"
        },
        {
          "internalType": "address",
          "name": "to",
          "type": "address"
        },
        {
          "internalType": "uint256",
          "name": "tokenId",
          "type": "uint256"
        },
        {
          "internalType": "bytes",
          "name": "_data",
          "type": "bytes"
        }
      ],
      "name": "safeTransferFrom",
      "outputs": [],
      "stateMutability": "nonpayable",
      "type": "function"
    },
    {
      "inputs": [
        {
          "internalType": "address",
          "name": "operator",
          "type": "address"
        },
        {
          "internalType": "bool",
          "name": "approved",
          "type": "bool"
        }
      ],
      "name": "setApprovalForAll",
      "outputs": [],
      "stateMutability": "nonpayable",
      "type": "function"
    },
    {
      "inputs": [
        {
          "internalType": "bytes4",
          "name": "interfaceId",
          "type": "bytes4"
        }
      ],
      "name": "supportsInterface",
      "outputs": [
        {
          "internalType": "bool",
          "name": "",
          "type": "bool"
        }
      ],
      "stateMutability": "view",
      "type": "function",
      "constant": true
    },
    {
      "inputs": [],
      "name": "symbol",
      "outputs": [
        {
          "internalType": "string",
          "name": "",
          "type": "string"
        }
      ],
      "stateMutability": "view",
      "type": "function",
      "constant": true
    },
    {
      "inputs": [
        {
          "internalType": "uint256",
          "name": "tokenId",
          "type": "uint256"
        }
      ],
      "name": "tokenURI",
      "outputs": [
        {
          "internalType": "string",
          "name": "",
          "type": "string"
        }
      ],
      "stateMutability": "view",
      "type": "function",
      "constant": true
    },
    {
      "inputs": [
        {
          "internalType": "address",
          "name": "from",
          "type": "address"
        },
        {
          "internalType": "address",
          "name": "to",
          "type": "address"
        },
        {
          "internalType": "uint256",
          "name": "tokenId",
          "type": "uint256"
        }
      ],
      "name": "transferFrom",
      "outputs": [],
      "stateMutability": "nonpayable",
      "type": "function"
    },
    {
      "inputs": [],
      "name": "getLastId",
      "outputs": [
        {
          "internalType": "uint256",
          "name": "",
          "type": "uint256"
        }
      ],
      "stateMutability": "view",
      "type": "function",
      "constant": true
    },
    {
      "inputs": [
        {
          "internalType": "string",
          "name": "_tokenURI",
          "type": "string"
        }
      ],
      "name": "createNFT",
      "outputs": [
        {
          "internalType": "uint256",
          "name": "",
          "type": "uint256"
        }
      ],
      "stateMutability": "nonpayable",
      "type": "function"
    }
  ],
  "bytecode": "0x60806040523480156200001157600080fd5b506040518060400160405280600a81526020017f417274206d696e746572000000000000000000000000000000000000000000008152506040518060400160405280600381526020017f4152540000000000000000000000000000000000000000000000000000000000815250816000908051906020019062000096929190620000b8565b508060019080519060200190620000af929190620000b8565b505050620001cd565b828054620000c69062000168565b90600052602060002090601f016020900481019282620000ea576000855562000136565b82601f106200010557805160ff191683800117855562000136565b8280016001018555821562000136579182015b828111156200013557825182559160200191906001019062000118565b5b50905062000145919062000149565b5090565b5b80821115620001645760008160009055506001016200014a565b5090565b600060028204905060018216806200018157607f821691505b602082108114156200019857620001976200019e565b5b50919050565b7f4e487b7100000000000000000000000000000000000000000000000000000000600052602260045260246000fd5b612b7c80620001dd6000396000f3fe608060405234801561001057600080fd5b50600436106100f55760003560e01c806370a0823111610097578063b88d4fde11610066578063b88d4fde14610284578063c87b56dd146102a0578063da2ed03e146102d0578063e985e9c514610300576100f5565b806370a08231146101fc57806395d89b411461022c578063a22cb4651461024a578063a8e5862d14610266576100f5565b8063095ea7b3116100d3578063095ea7b31461017857806323b872dd1461019457806342842e0e146101b05780636352211e146101cc576100f5565b806301ffc9a7146100fa57806306fdde031461012a578063081812fc14610148575b600080fd5b610114600480360381019061010f9190611ccf565b610330565b60405161012191906124d4565b60405180910390f35b610132610412565b60405161013f91906124ef565b60405180910390f35b610162600480360381019061015d9190611d62565b6104a4565b60405161016f919061246d565b60405180910390f35b610192600480360381019061018d9190611c93565b610529565b005b6101ae60048036038101906101a99190611b8d565b610641565b005b6101ca60048036038101906101c59190611b8d565b6106a1565b005b6101e660048036038101906101e19190611d62565b6106c1565b6040516101f3919061246d565b60405180910390f35b61021660048036038101906102119190611b28565b610773565b6040516102239190612711565b60405180910390f35b61023461082b565b60405161024191906124ef565b60405180910390f35b610264600480360381019061025f9190611c57565b6108bd565b005b61026e610a3e565b60405161027b9190612711565b60405180910390f35b61029e60048036038101906102999190611bdc565b610a4f565b005b6102ba60048036038101906102b59190611d62565b610ab1565b6040516102c791906124ef565b60405180910390f35b6102ea60048036038101906102e59190611d21565b610c03565b6040516102f79190612711565b60405180910390f35b61031a60048036038101906103159190611b51565b610c92565b60405161032791906124d4565b60405180910390f35b60007f80ac58cd000000000000000000000000000000000000000000000000000000007bffffffffffffffffffffffffffffffffffffffffffffffffffffffff1916827bffffffffffffffffffffffffffffffffffffffffffffffffffffffff191614806103fb57507f5b5e139f000000000000000000000000000000000000000000000000000000007bffffffffffffffffffffffffffffffffffffffffffffffffffffffff1916827bffffffffffffffffffffffffffffffffffffffffffffffffffffffff1916145b8061040b575061040a82610d26565b5b9050919050565b60606000805461042190612971565b80601f016020809104026020016040519081016040528092919081815260200182805461044d90612971565b801561049a5780601f1061046f5761010080835404028352916020019161049a565b820191906000526020600020905b81548152906001019060200180831161047d57829003601f168201915b5050505050905090565b60006104af82610d90565b6104ee576040517f08c379a00000000000000000000000000000000000000000000000000000000081526004016104e590612671565b60405180910390fd5b6004600083815260200190815260200160002060009054906101000a900473ffffffffffffffffffffffffffffffffffffffff169050919050565b6000610534826106c1565b90508073ffffffffffffffffffffffffffffffffffffffff168373ffffffffffffffffffffffffffffffffffffffff1614156105a5576040517f08c379a000000000000000000000000000000000000000000000000000000000815260040161059c906126d1565b60405180910390fd5b8073ffffffffffffffffffffffffffffffffffffffff166105c4610dfc565b73ffffffffffffffffffffffffffffffffffffffff1614806105f357506105f2816105ed610dfc565b610c92565b5b610632576040517f08c379a0000000000000000000000000000000000000000000000000000000008152600401610629906125b1565b60405180910390fd5b61063c8383610e04565b505050565b61065261064c610dfc565b82610ebd565b610691576040517f08c379a0000000000000000000000000000000000000000000000000000000008152600401610688906126f1565b60405180910390fd5b61069c838383610f9b565b505050565b6106bc83838360405180602001604052806000815250610a4f565b505050565b6000806002600084815260200190815260200160002060009054906101000a900473ffffffffffffffffffffffffffffffffffffffff169050600073ffffffffffffffffffffffffffffffffffffffff168173ffffffffffffffffffffffffffffffffffffffff16141561076a576040517f08c379a0000000000000000000000000000000000000000000000000000000008152600401610761906125f1565b60405180910390fd5b80915050919050565b60008073ffffffffffffffffffffffffffffffffffffffff168273ffffffffffffffffffffffffffffffffffffffff1614156107e4576040517f08c379a00000000000000000000000000000000000000000000000000000000081526004016107db906125d1565b60405180910390fd5b600360008373ffffffffffffffffffffffffffffffffffffffff1673ffffffffffffffffffffffffffffffffffffffff168152602001908152602001600020549050919050565b60606001805461083a90612971565b80601f016020809104026020016040519081016040528092919081815260200182805461086690612971565b80156108b35780601f10610888576101008083540402835291602001916108b3565b820191906000526020600020905b81548152906001019060200180831161089657829003601f168201915b5050505050905090565b6108c5610dfc565b73ffffffffffffffffffffffffffffffffffffffff168273ffffffffffffffffffffffffffffffffffffffff161415610933576040517f08c379a000000000000000000000000000000000000000000000000000000000815260040161092a90612571565b60405180910390fd5b8060056000610940610dfc565b73ffffffffffffffffffffffffffffffffffffffff1673ffffffffffffffffffffffffffffffffffffffff16815260200190815260200160002060008473ffffffffffffffffffffffffffffffffffffffff1673ffffffffffffffffffffffffffffffffffffffff16815260200190815260200160002060006101000a81548160ff0219169083151502179055508173ffffffffffffffffffffffffffffffffffffffff166109ed610dfc565b73ffffffffffffffffffffffffffffffffffffffff167f17307eab39ab6107e8899845ad3d59bd9653f200f220920489ca2b5937696c3183604051610a3291906124d4565b60405180910390a35050565b6000610a4a60076111f7565b905090565b610a60610a5a610dfc565b83610ebd565b610a9f576040517f08c379a0000000000000000000000000000000000000000000000000000000008152600401610a96906126f1565b60405180910390fd5b610aab84848484611205565b50505050565b6060610abc82610d90565b610afb576040517f08c379a0000000000000000000000000000000000000000000000000000000008152600401610af290612651565b60405180910390fd5b6000600660008481526020019081526020016000208054610b1b90612971565b80601f0160208091040260200160405190810160405280929190818152602001828054610b4790612971565b8015610b945780601f10610b6957610100808354040283529160200191610b94565b820191906000526020600020905b815481529060010190602001808311610b7757829003601f168201915b505050505090506000610ba5611261565b9050600081511415610bbb578192505050610bfe565b600082511115610bf0578082604051602001610bd8929190612449565b60405160208183030381529060405292505050610bfe565b610bf984611278565b925050505b919050565b6000610c0f600761131f565b6000610c1b60076111f7565b9050610c273382611335565b610c318184611353565b610c3b60076111f7565b3373ffffffffffffffffffffffffffffffffffffffff167f403f45e064e1472b925888509d0e5164b4642f3064c519d162e3b9261c204adc85604051610c8191906124ef565b60405180910390a380915050919050565b6000600560008473ffffffffffffffffffffffffffffffffffffffff1673ffffffffffffffffffffffffffffffffffffffff16815260200190815260200160002060008373ffffffffffffffffffffffffffffffffffffffff1673ffffffffffffffffffffffffffffffffffffffff16815260200190815260200160002060009054906101000a900460ff16905092915050565b60007f01ffc9a7000000000000000000000000000000000000000000000000000000007bffffffffffffffffffffffffffffffffffffffffffffffffffffffff1916827bffffffffffffffffffffffffffffffffffffffffffffffffffffffff1916149050919050565b60008073ffffffffffffffffffffffffffffffffffffffff166002600084815260200190815260200160002060009054906101000a900473ffffffffffffffffffffffffffffffffffffffff1673ffffffffffffffffffffffffffffffffffffffff1614159050919050565b600033905090565b816004600083815260200190815260200160002060006101000a81548173ffffffffffffffffffffffffffffffffffffffff021916908373ffffffffffffffffffffffffffffffffffffffff160217905550808273ffffffffffffffffffffffffffffffffffffffff16610e77836106c1565b73ffffffffffffffffffffffffffffffffffffffff167f8c5be1e5ebec7d5bd14f71427d1e84f3dd0314c0f7b2291e5b200ac8c7c3b92560405160405180910390a45050565b6000610ec882610d90565b610f07576040517f08c379a0000000000000000000000000000000000000000000000000000000008152600401610efe90612591565b60405180910390fd5b6000610f12836106c1565b90508073ffffffffffffffffffffffffffffffffffffffff168473ffffffffffffffffffffffffffffffffffffffff161480610f8157508373ffffffffffffffffffffffffffffffffffffffff16610f69846104a4565b73ffffffffffffffffffffffffffffffffffffffff16145b80610f925750610f918185610c92565b5b91505092915050565b8273ffffffffffffffffffffffffffffffffffffffff16610fbb826106c1565b73ffffffffffffffffffffffffffffffffffffffff1614611011576040517f08c379a000000000000000000000000000000000000000000000000000000000815260040161100890612691565b60405180910390fd5b600073ffffffffffffffffffffffffffffffffffffffff168273ffffffffffffffffffffffffffffffffffffffff161415611081576040517f08c379a000000000000000000000000000000000000000000000000000000000815260040161107890612551565b60405180910390fd5b61108c8383836113c7565b611097600082610e04565b6001600360008573ffffffffffffffffffffffffffffffffffffffff1673ffffffffffffffffffffffffffffffffffffffff16815260200190815260200160002060008282546110e79190612887565b925050819055506001600360008473ffffffffffffffffffffffffffffffffffffffff1673ffffffffffffffffffffffffffffffffffffffff168152602001908152602001600020600082825461113e9190612800565b92505081905550816002600083815260200190815260200160002060006101000a81548173ffffffffffffffffffffffffffffffffffffffff021916908373ffffffffffffffffffffffffffffffffffffffff160217905550808273ffffffffffffffffffffffffffffffffffffffff168473ffffffffffffffffffffffffffffffffffffffff167fddf252ad1be2c89b69c2b068fc378daa952ba7f163c4a11628f55a4df523b3ef60405160405180910390a4505050565b600081600001549050919050565b611210848484610f9b565b61121c848484846113cc565b61125b576040517f08c379a000000000000000000000000000000000000000000000000000000000815260040161125290612511565b60405180910390fd5b50505050565b606060405180602001604052806000815250905090565b606061128382610d90565b6112c2576040517f08c379a00000000000000000000000000000000000000000000000000000000081526004016112b9906126b1565b60405180910390fd5b60006112cc611261565b905060008151116112ec5760405180602001604052806000815250611317565b806112f684611563565b604051602001611307929190612449565b6040516020818303038152906040525b915050919050565b6001816000016000828254019250508190555050565b61134f828260405180602001604052806000815250611710565b5050565b61135c82610d90565b61139b576040517f08c379a000000000000000000000000000000000000000000000000000000000815260040161139290612611565b60405180910390fd5b806006600084815260200190815260200160002090805190602001906113c292919061194c565b505050565b505050565b60006113ed8473ffffffffffffffffffffffffffffffffffffffff1661176b565b15611556578373ffffffffffffffffffffffffffffffffffffffff1663150b7a02611416610dfc565b8786866040518563ffffffff1660e01b81526004016114389493929190612488565b602060405180830381600087803b15801561145257600080fd5b505af192505050801561148357506040513d601f19601f820116820180604052508101906114809190611cf8565b60015b611506573d80600081146114b3576040519150601f19603f3d011682016040523d82523d6000602084013e6114b8565b606091505b506000815114156114fe576040517f08c379a00000000000000000000000000000000000000000000000000000000081526004016114f590612511565b60405180910390fd5b805181602001fd5b63150b7a0260e01b7bffffffffffffffffffffffffffffffffffffffffffffffffffffffff1916817bffffffffffffffffffffffffffffffffffffffffffffffffffffffff19161491505061155b565b600190505b949350505050565b606060008214156115ab576040518060400160405280600181526020017f3000000000000000000000000000000000000000000000000000000000000000815250905061170b565b600082905060005b600082146115dd5780806115c6906129a3565b915050600a826115d69190612856565b91506115b3565b60008167ffffffffffffffff81111561161f577f4e487b7100000000000000000000000000000000000000000000000000000000600052604160045260246000fd5b6040519080825280601f01601f1916602001820160405280156116515781602001600182028036833780820191505090505b5090505b600085146117045760018261166a9190612887565b9150600a8561167991906129ec565b60306116859190612800565b60f81b8183815181106116c1577f4e487b7100000000000000000000000000000000000000000000000000000000600052603260045260246000fd5b60200101907effffffffffffffffffffffffffffffffffffffffffffffffffffffffffffff1916908160001a905350600a856116fd9190612856565b9450611655565b8093505050505b919050565b61171a838361177e565b61172760008484846113cc565b611766576040517f08c379a000000000000000000000000000000000000000000000000000000000815260040161175d90612511565b60405180910390fd5b505050565b600080823b905060008111915050919050565b600073ffffffffffffffffffffffffffffffffffffffff168273ffffffffffffffffffffffffffffffffffffffff1614156117ee576040517f08c379a00000000000000000000000000000000000000000000000000000000081526004016117e590612631565b60405180910390fd5b6117f781610d90565b15611837576040517f08c379a000000000000000000000000000000000000000000000000000000000815260040161182e90612531565b60405180910390fd5b611843600083836113c7565b6001600360008473ffffffffffffffffffffffffffffffffffffffff1673ffffffffffffffffffffffffffffffffffffffff16815260200190815260200160002060008282546118939190612800565b92505081905550816002600083815260200190815260200160002060006101000a81548173ffffffffffffffffffffffffffffffffffffffff021916908373ffffffffffffffffffffffffffffffffffffffff160217905550808273ffffffffffffffffffffffffffffffffffffffff16600073ffffffffffffffffffffffffffffffffffffffff167fddf252ad1be2c89b69c2b068fc378daa952ba7f163c4a11628f55a4df523b3ef60405160405180910390a45050565b82805461195890612971565b90600052602060002090601f01602090048101928261197a57600085556119c1565b82601f1061199357805160ff19168380011785556119c1565b828001600101855582156119c1579182015b828111156119c05782518255916020019190600101906119a5565b5b5090506119ce91906119d2565b5090565b5b808211156119eb5760008160009055506001016119d3565b5090565b6000611a026119fd8461275d565b61272c565b905082815260208101848484011115611a1a57600080fd5b611a2584828561292f565b509392505050565b6000611a40611a3b8461278d565b61272c565b905082815260208101848484011115611a5857600080fd5b611a6384828561292f565b509392505050565b600081359050611a7a81612aea565b92915050565b600081359050611a8f81612b01565b92915050565b600081359050611aa481612b18565b92915050565b600081519050611ab981612b18565b92915050565b600082601f830112611ad057600080fd5b8135611ae08482602086016119ef565b91505092915050565b600082601f830112611afa57600080fd5b8135611b0a848260208601611a2d565b91505092915050565b600081359050611b2281612b2f565b92915050565b600060208284031215611b3a57600080fd5b6000611b4884828501611a6b565b91505092915050565b60008060408385031215611b6457600080fd5b6000611b7285828601611a6b565b9250506020611b8385828601611a6b565b9150509250929050565b600080600060608486031215611ba257600080fd5b6000611bb086828701611a6b565b9350506020611bc186828701611a6b565b9250506040611bd286828701611b13565b9150509250925092565b60008060008060808587031215611bf257600080fd5b6000611c0087828801611a6b565b9450506020611c1187828801611a6b565b9350506040611c2287828801611b13565b925050606085013567ffffffffffffffff811115611c3f57600080fd5b611c4b87828801611abf565b91505092959194509250565b60008060408385031215611c6a57600080fd5b6000611c7885828601611a6b565b9250506020611c8985828601611a80565b9150509250929050565b60008060408385031215611ca657600080fd5b6000611cb485828601611a6b565b9250506020611cc585828601611b13565b9150509250929050565b600060208284031215611ce157600080fd5b6000611cef84828501611a95565b91505092915050565b600060208284031215611d0a57600080fd5b6000611d1884828501611aaa565b91505092915050565b600060208284031215611d3357600080fd5b600082013567ffffffffffffffff811115611d4d57600080fd5b611d5984828501611ae9565b91505092915050565b600060208284031215611d7457600080fd5b6000611d8284828501611b13565b91505092915050565b611d94816128bb565b82525050565b611da3816128cd565b82525050565b6000611db4826127bd565b611dbe81856127d3565b9350611dce81856020860161293e565b611dd781612ad9565b840191505092915050565b6000611ded826127c8565b611df781856127e4565b9350611e0781856020860161293e565b611e1081612ad9565b840191505092915050565b6000611e26826127c8565b611e3081856127f5565b9350611e4081856020860161293e565b80840191505092915050565b6000611e596032836127e4565b91507f4552433732313a207472616e7366657220746f206e6f6e20455243373231526560008301527f63656976657220696d706c656d656e74657200000000000000000000000000006020830152604082019050919050565b6000611ebf601c836127e4565b91507f4552433732313a20746f6b656e20616c7265616479206d696e746564000000006000830152602082019050919050565b6000611eff6024836127e4565b91507f4552433732313a207472616e7366657220746f20746865207a65726f2061646460008301527f72657373000000000000000000000000000000000000000000000000000000006020830152604082019050919050565b6000611f656019836127e4565b91507f4552433732313a20617070726f766520746f2063616c6c6572000000000000006000830152602082019050919050565b6000611fa5602c836127e4565b91507f4552433732313a206f70657261746f7220717565727920666f72206e6f6e657860008301527f697374656e7420746f6b656e00000000000000000000000000000000000000006020830152604082019050919050565b600061200b6038836127e4565b91507f4552433732313a20617070726f76652063616c6c6572206973206e6f74206f7760008301527f6e6572206e6f7220617070726f76656420666f7220616c6c00000000000000006020830152604082019050919050565b6000612071602a836127e4565b91507f4552433732313a2062616c616e636520717565727920666f7220746865207a6560008301527f726f2061646472657373000000000000000000000000000000000000000000006020830152604082019050919050565b60006120d76029836127e4565b91507f4552433732313a206f776e657220717565727920666f72206e6f6e657869737460008301527f656e7420746f6b656e00000000000000000000000000000000000000000000006020830152604082019050919050565b600061213d602e836127e4565b91507f45524337323155524953746f726167653a2055524920736574206f66206e6f6e60008301527f6578697374656e7420746f6b656e0000000000000000000000000000000000006020830152604082019050919050565b60006121a36020836127e4565b91507f4552433732313a206d696e7420746f20746865207a65726f20616464726573736000830152602082019050919050565b60006121e36031836127e4565b91507f45524337323155524953746f726167653a2055524920717565727920666f722060008301527f6e6f6e6578697374656e7420746f6b656e0000000000000000000000000000006020830152604082019050919050565b6000612249602c836127e4565b91507f4552433732313a20617070726f76656420717565727920666f72206e6f6e657860008301527f697374656e7420746f6b656e00000000000000000000000000000000000000006020830152604082019050919050565b60006122af6029836127e4565b91507f4552433732313a207472616e73666572206f6620746f6b656e2074686174206960008301527f73206e6f74206f776e00000000000000000000000000000000000000000000006020830152604082019050919050565b6000612315602f836127e4565b91507f4552433732314d657461646174613a2055524920717565727920666f72206e6f60008301527f6e6578697374656e7420746f6b656e00000000000000000000000000000000006020830152604082019050919050565b600061237b6021836127e4565b91507f4552433732313a20617070726f76616c20746f2063757272656e74206f776e6560008301527f72000000000000000000000000000000000000000000000000000000000000006020830152604082019050919050565b60006123e16031836127e4565b91507f4552433732313a207472616e736665722063616c6c6572206973206e6f74206f60008301527f776e6572206e6f7220617070726f7665640000000000000000000000000000006020830152604082019050919050565b61244381612925565b82525050565b60006124558285611e1b565b91506124618284611e1b565b91508190509392505050565b60006020820190506124826000830184611d8b565b92915050565b600060808201905061249d6000830187611d8b565b6124aa6020830186611d8b565b6124b7604083018561243a565b81810360608301526124c98184611da9565b905095945050505050565b60006020820190506124e96000830184611d9a565b92915050565b600060208201905081810360008301526125098184611de2565b905092915050565b6000602082019050818103600083015261252a81611e4c565b9050919050565b6000602082019050818103600083015261254a81611eb2565b9050919050565b6000602082019050818103600083015261256a81611ef2565b9050919050565b6000602082019050818103600083015261258a81611f58565b9050919050565b600060208201905081810360008301526125aa81611f98565b9050919050565b600060208201905081810360008301526125ca81611ffe565b9050919050565b600060208201905081810360008301526125ea81612064565b9050919050565b6000602082019050818103600083015261260a816120ca565b9050919050565b6000602082019050818103600083015261262a81612130565b9050919050565b6000602082019050818103600083015261264a81612196565b9050919050565b6000602082019050818103600083015261266a816121d6565b9050919050565b6000602082019050818103600083015261268a8161223c565b9050919050565b600060208201905081810360008301526126aa816122a2565b9050919050565b600060208201905081810360008301526126ca81612308565b9050919050565b600060208201905081810360008301526126ea8161236e565b9050919050565b6000602082019050818103600083015261270a816123d4565b9050919050565b6000602082019050612726600083018461243a565b92915050565b6000604051905081810181811067ffffffffffffffff8211171561275357612752612aaa565b5b8060405250919050565b600067ffffffffffffffff82111561277857612777612aaa565b5b601f19601f8301169050602081019050919050565b600067ffffffffffffffff8211156127a8576127a7612aaa565b5b601f19601f8301169050602081019050919050565b600081519050919050565b600081519050919050565b600082825260208201905092915050565b600082825260208201905092915050565b600081905092915050565b600061280b82612925565b915061281683612925565b9250827fffffffffffffffffffffffffffffffffffffffffffffffffffffffffffffffff0382111561284b5761284a612a1d565b5b828201905092915050565b600061286182612925565b915061286c83612925565b92508261287c5761287b612a4c565b5b828204905092915050565b600061289282612925565b915061289d83612925565b9250828210156128b0576128af612a1d565b5b828203905092915050565b60006128c682612905565b9050919050565b60008115159050919050565b60007fffffffff0000000000000000000000000000000000000000000000000000000082169050919050565b600073ffffffffffffffffffffffffffffffffffffffff82169050919050565b6000819050919050565b82818337600083830152505050565b60005b8381101561295c578082015181840152602081019050612941565b8381111561296b576000848401525b50505050565b6000600282049050600182168061298957607f821691505b6020821081141561299d5761299c612a7b565b5b50919050565b60006129ae82612925565b91507fffffffffffffffffffffffffffffffffffffffffffffffffffffffffffffffff8214156129e1576129e0612a1d565b5b600182019050919050565b60006129f782612925565b9150612a0283612925565b925082612a1257612a11612a4c565b5b828206905092915050565b7f4e487b7100000000000000000000000000000000000000000000000000000000600052601160045260246000fd5b7f4e487b7100000000000000000000000000000000000000000000000000000000600052601260045260246000fd5b7f4e487b7100000000000000000000000000000000000000000000000000000000600052602260045260246000fd5b7f4e487b7100000000000000000000000000000000000000000000000000000000600052604160045260246000fd5b6000601f19601f8301169050919050565b612af3816128bb565b8114612afe57600080fd5b50565b612b0a816128cd565b8114612b1557600080fd5b50565b612b21816128d9565b8114612b2c57600080fd5b50565b612b3881612925565b8114612b4357600080fd5b5056fea2646970667358221220c639b952d8a32d9a8e3a0c21df001f9183611ef9edd0328b5e5fbd64d88978bf64736f6c63430008000033",
  "immutableReferences": {},
  "source": "// SPDX-License-Identifier: MIT\npragma solidity ^0.8.0;\n\nimport \"@openzeppelin/contracts/token/ERC721/extensions/ERC721URIStorage.sol\";\nimport \"@openzeppelin/contracts/utils/Counters.sol\";\n\ncontract NFTMarket is ERC721URIStorage {\n    using Counters for Counters.Counter;\n    Counters.Counter private tokenIds;\n\n    event NFTCreated(address indexed _to, uint256 indexed _tokenId, string _tokenURI);\n\n    constructor() ERC721(\"Art minter\", \"ART\") {}\n\n    function getLastId() \n        public view\n        returns (uint256) \n    {\n        return tokenIds.current();    \n    }\n\n    function createNFT(string memory _tokenURI)\n        public\n        returns (uint256)\n    {\n        tokenIds.increment();\n\n        uint256 newItemId = tokenIds.current();\n        _safeMint(msg.sender, newItemId);\n        _setTokenURI(newItemId, _tokenURI);\n\n        emit NFTCreated(msg.sender, tokenIds.current(), _tokenURI);\n\n        return newItemId;\n    }\n}",
  "sourcePath": "/Users/paulochade/Desktop/nft/src/contracts/NFTMarket.sol",
  "compiler": {
    "name": "solc",
    "version": "0.8.0+commit.c7dfd78e.Emscripten.clang"
  },
  "schemaVersion": "3.4.3",
  "updatedAt": "2021-11-21T16:41:04.297Z",
  "networkType": "ethereum",
  "devdoc": {
    "kind": "dev",
    "methods": {
      "approve(address,uint256)": {
        "details": "See {IERC721-approve}."
      },
      "balanceOf(address)": {
        "details": "See {IERC721-balanceOf}."
      },
      "getApproved(uint256)": {
        "details": "See {IERC721-getApproved}."
      },
      "isApprovedForAll(address,address)": {
        "details": "See {IERC721-isApprovedForAll}."
      },
      "name()": {
        "details": "See {IERC721Metadata-name}."
      },
      "ownerOf(uint256)": {
        "details": "See {IERC721-ownerOf}."
      },
      "safeTransferFrom(address,address,uint256)": {
        "details": "See {IERC721-safeTransferFrom}."
      },
      "safeTransferFrom(address,address,uint256,bytes)": {
        "details": "See {IERC721-safeTransferFrom}."
      },
      "setApprovalForAll(address,bool)": {
        "details": "See {IERC721-setApprovalForAll}."
      },
      "supportsInterface(bytes4)": {
        "details": "See {IERC165-supportsInterface}."
      },
      "symbol()": {
        "details": "See {IERC721Metadata-symbol}."
      },
      "tokenURI(uint256)": {
        "details": "See {IERC721Metadata-tokenURI}."
      },
      "transferFrom(address,address,uint256)": {
        "details": "See {IERC721-transferFrom}."
      }
    },
    "version": 1
  },
  "userdoc": {
    "kind": "user",
    "methods": {},
    "version": 1
  }
}